:020000040800F2
:1000000048F800201D04000801960008C788000871
:100010006F950008E53800089DB200080000000058
:10002000000000000000000000000000290300089C
:10003000653D00080000000085030008B5A4000825
:10004000C1B300083704000837040008370400086B
:100050003704000837040008370400083704000894
:1000600037040008370400088544000837040008F6
:10007000853B0008953B0008A53B0008B53B000800
:10008000C53B00083704000835340008193900085A
:10009000E9380008F9380008093900083704000871
:1000A000370400083704000837040008EDA80008EA
:1000B000FDA80008370400080DA90008370400084F
:1000C0003704000837040008370400083704000824
:1000D0003704000811AE000825AE000839AE00084C
:1000E0003704000837040008370400083704000804
:1000F00037040008370400083704000837040008F4
:1001000037040008370400083704000837040008E3
:10011000BDAB0008D1AB0008370400083704000865
:10012000D53B0008E53B0008370400083704000809
:10013000370400080D3F0008754400083704000824
:1001400037040008370400083704000837040008A3
:1001500037040008F53B000837040008370400089E
:100160003704000837040008370400083704000883
:1001700037040008370400083704000800000000B6
:10018000370400083704000800F002F800F0BCF85B
:100190000AA090E8000C82448344AAF10107DA45E2
:1001A00001D100F0B1F8AFF2090EBAE80F0013F078
:1001B000010F18BFFB1A43F001031847104E02004D
:1001C000304E02000A444FF0000C10F8013B13F0CF
:1001D000070408BF10F8014B1D1108BF10F8015BA0
:1001E000641E05D010F8016B641E01F8016BF9D193
:1001F00013F0080F1EBF10F8014BAD1C0C1B09D1EA
:100200006D1E58BF01F801CBFAD505E014F8016B5B
:1002100001F8016B6D1EF9D59142D6D370470000ED
:100220000023002400250026103A28BF78C1FBD8FF
:10023000520728BF30C148BF0B6070476E2901F0DC
:100240008380702900F0E382662923F060856529A8
:1002500023F05D85672923F05A85612923F05985AC
:1002600003681B0A28BF41F08001692900F054820D
:10027000642900F05182752900F04E826F2901F047
:100280007A81782900F0AF82E92901F01581E4290B
:1002900001F01281F52901F00F81EF2901F077813A
:1002A000F82900F0AE820368DB0928BF41F0800125
:1002B000632901F08480732901F08980E32901F02A
:1002C000D987F32901F0DE87002070471FB523F09E
:1002D00014FD9DE8030000F08BFF00F0B4FC00F07B
:1002E0006BFF04000020002122F052FE401C6060E1
:1002F0000020002122F062FEE06001F0C3FA1FBD81
:1003000010B501F028FB10BD02F02AFB1146FFF7E3
:10031000DDFF13F04DFB02F0FBFB03B4FFF7F0FF32
:1003200003BC02F045FC00002C4B19680868B0E8DB
:10033000F04F80F30988BFF36F8F4FF0000080F318
:10034000118870470000000008480068006880F3CA
:1003500008884FF0000080F3148862B661B6BFF3DE
:100360004F8FBFF36F8F00DF00BF00BF08ED00E0CD
:10037000DFF80C00016841F470010160704700BFB4
:1003800088ED00E0EFF30980BFF36F8F134B1A681D
:100390001EF0100F08BF20ED108A20E9F04F10600A
:1003A00009B44FF0500080F31188BFF34F8FBFF3B3
:1003B0006F8F21F003FD4FF0000080F3118809BC1E
:1003C00019680868B0E8F04F1EF0100F08BFB0ECD5
:1003D000108A80F30988BFF36F8F70476800002090
:1003E000EFF30580704700000B49D1F800C04A6860
:1003F0005CF8043B1068184442F8040B8C4528BF95
:10040000A1F1DC0C8A4228BFA1F1DC02C1F800C0D6
:100410004A6020F000407047B4F10020094880474E
:1004200009480047FEE7FEE7FEE7FEE7FEE7FEE7D6
:10043000FEE7FEE7FEE7FEE704480549054A064BEE
:1004400070470000D9A800088901000848F2002080
:1004500048F8002048F4002048F4002010B500F0CF
:10046000ABFE001D10BD00BF292B020000487047E5
:10047000E8F1002070B5064600F09AFE056806F126
:100480000B0020F00704B4429CBF002070BD2B4637
:100490006A68BAB11068A04210D304F1080188421A
:1004A0003CBF5068586007D351681019416011680B
:1004B000091B016058601460101D70BD134652681E
:1004C000002AE7D12146284600F07EFE0028DED132
:1004D00070BD70B50446051F00F06AFE0068002C70
:1004E00014BF446870BD002C18BFAC423CBF20460E
:1004F0006468F8D301680A18AA4218BF456003D19E
:100500002A6805461144016028684119A1421CBFB0
:100510006C6070BD6168696021680844286070BDC6
:1005200053EA020C00F069802DE9F04B4FF0000611
:10053000002B1FBFB3FA83F503FA05F424FA05F67E
:100540005E4012BF1643B2FA82F502FA05F4C5F115
:1005500020051EBF22FA05FC44EA0C04203556EAA9
:10056000044C4FEA144418BF641C4FF000084FF0CD
:100570000009904271EB030C39D3002919BFB1FA7D
:1005800081F701FA07F6B0FA80F700FA07F6C7F12B
:1005900020071EBF20FA07FC46EA0C062037B6FBF0
:1005A000F4FCA7EB0507103F07F01F0BCBF120066B
:1005B0000CFA0BFB2CFA06F644BFB3460026202F9C
:1005C000A4BF5E464FF0000B5BEA060C08BF4FF07D
:1005D000010B19EB0B09ABFB027C48EB0608C01BB7
:1005E00006FB02CC0BFB03CC71EB0C01C1E70B4605
:1005F000024641464846BDE8F08B13B54FF0000077
:100600004FF00001AFF30080BDE81C4070470000D0
:100610001CB50C46064B7B4469460090204600F012
:10062000ACFE04460020694600F0BAFE20461CBD20
:10063000870D00000FB4044910B503AA029800F01A
:10064000CBFE10BC5DF814FB30F000200FB41CB5DD
:10065000084B06AA7B4469460090059800F08DFE81
:1006600004460020694600F09BFE20461CBC5DF855
:1006700014FB0000490D000070B504468569006850
:10068000C10601D5302600E02026C00707D070BD86
:10069000D4E9012130469047206A401C20626D1E3B
:1006A000F6D570BD70B5044685690078C00707D1DE
:1006B00070BDD4E9012120209047206A401C2062AF
:1006C0006D1EF6D570BD70B50C460546012A05D0E5
:1006D0002878800600D5EA69002302E0012305E0BE
:1006E0005B1C934202D2E05C0028F9D1A869E618AD
:1006F000C01AA861286A184428622846FFF7BCFF80
:1007000004E0D5E9012114F8010B9047B442F8D375
:100710002846FFF7C7FF70BD2DE9F04106460024CB
:1007200010687529314616A510D000F0A2FD0028EA
:1007300002DA404213A507E031688A0701D512A505
:1007400002E0490704D511A5012401E000F09AFD5B
:1007500000210A2206F1240709E0B0FBF2FCB0FBFD
:10076000F2F302FB1C00303078541846491C002874
:10077000F3D123462A463046BDE8F04100F08BBD58
:10078000000000002D0000002B00000020000000F1
:10079000F0B40D460188090502D5214C7C4402E0E5
:1007A0001F4C7C440E34002100F1240608E002F0C6
:1007B0000F071209E75D42EA03721B097754491CCF
:1007C00052EA0307F3D102780023120704D5702DF3
:1007D00006D009B1022311342246F0BC00F05BBD03
:1007E00001231034F8E770B504460D462146106821
:1007F00000F048FD024629462046BDE8704000232F
:10080000C6E7D21D22F00703D3E90023C0E703683F
:10081000126843F0200303600823C3610023B7E795
:10082000E03E02002DE9F05F894604464FF0000AE1
:10083000DFF874B1FB44C0F820A02046E168884787
:10084000002874D0252806D0D4E901219047206AD9
:10085000401C2062F1E700265F462046E168884799
:100860002028054607DB312D05D2781910F8200C19
:1008700008B10643F1E7B00701D526F00406C4F835
:100880001CA00027C4F818A02A2D09D028460BF078
:10089000FBFC38B304EB8708303DC8F8185019E06A
:1008A00059F8041B204604EB87029161E1688847F0
:1008B000012F054618D1E069002820DA26F020062D
:1008C0001DE0D8F8180000EB800005EB4000303840
:1008D000C8F818002046E168884705460BF0D4FCAC
:1008E0000028EED1012F0AD02E2D08D12046E16834
:1008F00088477F1C0546022F46F02006C4DBA0690E
:10090000002803DA404246F00106A061F00701D05A
:1009100026F010066C2D0BD0682D09D04C2D39D047
:100920006A2D35D0742D35D07A2D33D016E038E0CD
:10093000E1682F4620468847B842054609D16C2F0A
:1009400026D04FF48060E16806432046884705467C
:1009500004E06C2F1AD04FF4807006430DB3A5F15C
:100960004100192802D8203546F400664A46294637
:10097000204626604E46FFF761FC80B101280BD06F
:10098000F61D26F0070000F1080956E74020E4E7CD
:100990008020D8E70020D6E706F104094DE7284675
:1009A00052E7206ABDE8F09F703E02000FB400B528
:1009B0008DB010A9099000910B904FF0FF300A9074
:1009C00000200C90064878440690064878446A4611
:1009D00007900F9909A800F0F9FD0DB05DF814FB20
:1009E000230C00003B0C00002DE9FF5F4FF00008D6
:1009F0009946144646469169D2E901A7DDF838B018
:100A000001988847054659EA0B0005D009E0A1691D
:100A10000198761C88470546216A284688470028A1
:100A2000F5D1681C03D05FEACA7005D015E04FF01D
:100A3000FF3004B0BDE8F09F2068011D2160D0F8B0
:100A400000800AE05FEACA7001D108F8015BA16981
:100A5000761C01987F1E88470546002F1ADD681C0A
:100A600018D0B9F1000F0DD0E81705EBD060421196
:100A700020F01F0059F822102A1A0120904001424C
:100A8000E0D107E0BBF1000FDCD12846216A88479E
:100A90000028D7D0E16901988847BBF1000F07D142
:100AA000002E05DD5FEACA7002D1002188F800102F
:100AB000A068B84203DDBBF1000F03D017B16FF09F
:100AC0000100B6E73046B4E770B50646FFF7CEFC46
:100AD0000468054630460A22002100F0A7FD2C607C
:100AE00070BD00002DE9F0410C4607461646104641
:100AF00000F06EF82078611C61280AD0722802D0BC
:100B000077283CD102E00125002405E002250424D9
:100B100002E0082448F2020511F8010B2B2806D048
:100B2000622809D011F8010C74280AD00BE045F0B6
:100B3000030544F00204EFE745F0040544F0010426
:100B4000EAE744F010043846214600F0FAFA411C66
:100B500015D00021316171604FF40071F560F161D1
:100B60007061200704D530460222002100F096FD76
:100B7000306D40F0010030653046BDE8F081002066
:100B8000FBE72DE9F0410D460646104C206DC107EC
:100B900004D0410804D020F00104F7E722460EE01B
:100BA0005420FFF767FC07000ED0206D47F00101CD
:100BB000084354212065384600F07CF93A4629461E
:100BC0003046BDE8F0418DE70020D6E7DCEF00209D
:100BD0002DE9F04704464FF000094FF0FF37C56894
:100BE000D4E90486A80707D0204600F007FE304667
:100BF00000F0B1FA002802DA3846BDE8F08728058F
:100C000002D54046FFF765FC4C21204600F052F922
:100C1000206D20F0010020654846EEE70B4910B535
:100C2000A1F17C020A4CC2E93712372106E000EB41
:100C3000104342F82130074B00FB03400B1EA1F18B
:100C40000101F4DC10BD0120E8E7000054F10020B0
:100C5000E119D666CD0D010030B505460B462A4692
:100C600013F8014B12F8010B08B1A042F8D01CB1E7
:100C7000002802D06D1CF1E7284630BD40EA010390
:100C800010B59B070FD1042A0DD310C808C9121F35
:100C90009C42F8D020BA19BA884201D9012010BD6F
:100CA0004FF0FF3010BD1AB1D30703D0521C07E03C
:100CB000002010BD10F8013B11F8014B1B1B07D1A0
:100CC00010F8013B11F8014B1B1B01D1921EF1D111
:100CD000184610BD40EA0103024630B59B0710D10B
:100CE0004FF0013400E008C208C91D1B9D4315EAFE
:100CF000C41FF8D013F0FF0102F8011B0DD01B0A2E
:100D0000F8E711F8013B002B02F8013B05D011F880
:100D1000013B002B02F8013BF3D130BD10B5431C61
:100D200002E010F8011B71B18107FAD14FF00132D6
:100D300002C88C1A8C4314EAC211F9D0C01A0A06F0
:100D400003D0C01E10BDC01A10BD0A0401D0801E01
:100D500010BD0902FCD0401E10BD421E12F8013F1A
:100D6000002BFBD111F8013B002B02F8013BF9D11C
:100D70007047032A40F2308010F0030C00F0158019
:100D800011F8013BBCF1020F624498BF11F801CB8E
:100D900000F8013B38BF11F8013BA2F1040298BFF3
:100DA00000F801CB38BF00F8013B11F0030300F05D
:100DB0002580083AC0F0088051F8043B083A51F801
:100DC00004CBA0E80810F5E7121D5CBF51F8043B06
:100DD00040F8043BAFF30080D20724BF11F8013B79
:100DE00011F801CB48BF11F8012B24BF00F8013BDB
:100DF00000F801CB48BF00F8012B704710B5203A2E
:100E0000C0F00B80B1E81850203AA0E81850B1E8C3
:100E10001850A0E81850BFF4F5AF5FEA027C24BF79
:100E2000B1E81850A0E8185044BF18C918C0BDE870
:100E300010405FEA827C24BF51F8043B40F8043B39
:100E400008BF7047D20728BF31F8023B48BF11F8EE
:100E5000012B28BF20F8023B48BF00F8012B704748
:100E600002F0FF0343EA032242EA024200F002B822
:100E70004FF000020429C0F0128010F0030C00F0C3
:100E80001B80CCF1040CBCF1020F18BF00F8012B41
:100E9000A8BF20F8022BA1EB0C0100F00DB85FEA0F
:100EA000C17C24BF00F8012B00F8012B48BF00F8DB
:100EB000012B70474FF0000200B51346944696464A
:100EC000203922BFA0E80C50A0E80C50B1F120015D
:100ED000BFF4F7AF090728BFA0E80C5048BF0CC00B
:100EE0005DF804EB890028BF40F8042B08BF704769
:100EF00048BF20F8022B11F0804F18BF00F8012BDB
:100F0000704700004FF0013C50F8042B51F8043BAF
:100F10009A4221D1A2EB0C03934313EACC1317D1CD
:100F200050F8042B51F8043B9A4215D1A2EB0C0364
:100F3000934313EACC130BD150F8042B51F8043B24
:100F40009A4209D1A2EB0C03934313EACC13DBD0F2
:100F50004FF00000704700BFD01A01BAB1FA81F11A
:100F600001F0180122FA01F0CB40C1F12001DBB2FF
:100F7000C0B2C01A2CFA01F3D11A914311EAC3117D
:100F8000E6D17047014900F019BD0000BCF1002016
:100F900010B503681C1404EB21449BB289B21944B8
:100FA00094FBF2F302FB134394FBF2F401EB0343D3
:100FB00093FBF2F102FB113193FBF2F301E05B1EB4
:100FC00011440029FBDB016003EB044010BDF0B5C8
:100FD00004464FF0FF3585B00068049060680290C9
:100FE000A0680390E068019020690090666906F1AE
:100FF0008040B0F1004F7CD83C22002104A8FFF7CC
:10100000C7FF3C22014602A8FFF7C2FF1822014693
:1010100003A8FFF7BDFF411E40F2B55201A8FFF73C
:10102000B7FF0C22074668460021FFF7B1FF414B8E
:1010300000EB8700304400267B4411E0511A0191F7
:101040000099491C0229009102D00C2908D105E021
:10105000810705D00199491C019101E0401C0096CF
:101060000099019A595C9142E8DD0099012906D165
:101070001C2A04D1810702D00221CDE90016A0F17B
:1010800046018B293CD2DDE90061002202E09F5C31
:10109000521C3944B242FADB012E02DD820700D035
:1010A000491E40F2B55340F26D16C21700EB927222
:1010B00092105A4300F0030303FB062283070A44FD
:1010C00000D1521E039E02EB4203049F06EBC303B2
:1010D000029EC3EB031306EB8303174E33441E1427
:1010E0009BB2C6EB0616C3EB0313B60007EB8303F4
:1010F00000E005E006EB134666F31F43360C02D012
:10110000284605B0F0BD80C4029E40C4039E40C482
:10111000019E761C44F80C6B009E44E90260072097
:10112000521C92FBF0F600FB162084E823001846C0
:10113000E7E7000020370200A039CEFD7047704776
:1011400070470EB5CDE90001FFF7E8FD0290694652
:101150000120ABBE0EBD08B5694600900220ABBEB3
:1011600008BD1FB58DE8070069460520ABBE04B079
:1011700010BD1FB58DE80F0069460620ABBEF6E72F
:1011800008B5694600900920ABBE08BD1CB5CDE985
:10119000000169460A20ABBE1CBD704708B5694610
:1011A00000900C20ABBE08BD00487047E8F100205D
:1011B00000487047F0F100200048704708F2002016
:1011C000704770477047704738B504460A4600209C
:1011D0006946AFF30080002808BF38BD0246009979
:1011E000204600F048FC012038BD012001F0B1BBD1
:1011F000F8B5AFF30080054600200C46102000BF74
:101200000646A819A0420DD9324669460020AFF320
:101210000080070008BF01F09CFB0098A04218BFA7
:101220000546C419FFF7C4FF05600746F01D20F00E
:1012300007004619284600F00AF8B44208BFF8BD76
:10124000A21B31463868BDE8F84000F014BC00210C
:101250000160C0E9011070471020704710B5FFF71A
:1012600005F9006810BD10B50446FFF7FFF80460EB
:1012700010BD09684A0501D540B27047C905FCD5C3
:1012800000B2704709684A0501D5C0B27047C90568
:10129000FCD580B270472DE9F0470D46994692463D
:1012A000044600F124080168880604D5E06921F0AD
:1012B0001001216000E00120A84201DD471B00E091
:1012C0000027A1697A1902EB0900081AA0612078A9
:1012D000C00602D42046FFF7CFF9002608E0D4E983
:1012E00001211AF806009047206A401C761C2062F3
:1012F0004E45F4DB2078C0060AD52046FFF7BCF93E
:1013000006E0D4E9012130209047206A401C206289
:10131000381EA7F10107F4DC07E0D4E9012118F831
:1013200005009047206A401C2062281EA5F1010597
:10133000F3DC2046FFF7B6F92078000602D502203C
:10134000BDE8F0870120FBE711680268006A5305D9
:1013500001D508700AE0D30501D5088006E0130620
:1013600003D5C217C1E9000200E008600120704700
:1013700001694A1C02610878704700B58FB0CDE959
:1013800001310021059105497944CDE90310114649
:101390006846FFF747FA0FB000BD0000E5FFFFFF0A
:1013A0000A6802F8010B0A60704710B5436913B16F
:1013B000AFF3008001E0FFF786F9012010BD12783D
:1013C00000F124010A7000224A700122EDE7116841
:1013D0004FF0FF32E9E70000074B70B50D467B4444
:1013E000FFF7CBFF0446284601F059F910B14FF042
:1013F000FF3070BD204670BDC7EA00002DE9FF5FD9
:1014000015468A460446DFF8AC80F8440027D8E940
:1014100000103E46CDE9001010E03AF816106A467A
:1014200002A801F06FFA411C07D02178890603D584
:10143000E269391891420DD80744761C207880065D
:1014400002D5E069B84205DDAE42E6DB3AF81600A7
:101450000028E2D1A069C01BA0612046FFF70CF96B
:10146000D8E90010CDE90010002017E03AF8181074
:101470006A4602A801F046FAB0F1FF3F81460BD060
:1014800000250DF1080B05E0D4E901211BF805004A
:1014900090476D1C4D45F7D308F10100B0428046DE
:1014A000E4DB206A384420622046FFF7FBF8BDE801
:1014B000FF9F0000463302002DE9F0418046D21D17
:1014C00022F007020025D2E90002F52915A614D062
:1014D000011E72F1000106DA0023D0EB030063EB7A
:1014E000020211A608E0D8F800108B0701D50FA65C
:1014F00002E0490701D50EA601251146002408F196
:10150000240704E000F0D1FA30323A55641C50EA66
:101510000102F7D12B46324621464046BDE8F04154
:10152000FFF7B9BE000000002D0000002B000000F6
:101530002000000030B4002100F1240408E002F093
:101540000705D208303542EA4372DB086554491C6E
:1015500052EA0305F3D10468002310A2250707D53A
:10156000A40600D421B1C46901230DA2641EC46184
:1015700030BCFFF790BE10B5044621461068FFF757
:1015800081FE02462046BDE810400023D2E7D21D6E
:1015900022F00701D1E90023CCE7000000000000A1
:1015A000300000003A2800D2303820F02002412AD2
:1015B00001D3A2F13700884201D34FF0FF307047CA
:1015C000026811441378016018467047D1600549DC
:1015D0007944516104497944116200211161114635
:1015E00000F054BEEDFFFFFF5B050000426842B112
:1015F000016811F8013B23B1521EC0E900121846E0
:1016000070470121C160881E704742685AB1C368A3
:10161000016843B983688B4205D0491E521CC0E95A
:101620000012002070474FF0FF3070472DE9F0475F
:1016300091460F4680460446002614F8015B2DB102
:10164000FEF70CFF0068405DC007F6D12B2D02D0DD
:101650002D2D18D0641E4A463946204600F0D0FF92
:1016600027B13968A14201D1C7F800804FF00204C8
:1016700071050BD54042002803DDFEF7F7FE04603C
:10168000A007BDE8F08746F48066E4E70028F8DAB2
:10169000FEF7ECFE04606FF00040F2E72DE9F04148
:1016A000044616460D464769007B80072ED0384613
:1016B000FFF766FD50BB3EB3012E02D0022E25D1AE
:1016C00004E0204601F0DAF805441DE03846FFF753
:1016D00065FDE168002841F01001E16005DA20466F
:1016E00000F058F80120BDE8F081C9030BD562680D
:1016F000E16A914200D81146A26911442269891A0F
:10170000814200DD08460544002D01DA0220EAE7A7
:10171000E16A6068E268814206D29103E06203D523
:1017200022F4003141F01002A6690027AE4213DC1A
:10173000E16A814201D90B4600E0034603EB060C47
:101740002369ACEB030CAC4506DD814201D98C4624
:1017500000E084469C4505D1A760276042F0200048
:10176000A5620DE0AD1BE669AE1B8142A66000D903
:101770000846C01A281A20605819606022F020001C
:1017800003490840E060002084F84870ABE700009F
:10179000BFCFD7FFC16821F4001141F08001C160C3
:1017A00000218160016070472DE9F04781461446B1
:1017B0000E464FF0FF383248D5685769054209D0C8
:1017C0003846A169FFF7E2FC002811DB2C48C04332
:1017D0000540E5602B46324649463846FFF7C1FCD6
:1017E000A16920F00042B21A11440028A16103D07F
:1017F0002046FFF7CFFF4046BDE8F08770B50446AE
:101800000569C06A6168884200D80846E16821F429
:101810002011E160C90312D5A84208D02246411B1D
:101820002846FFF7C1FF10B14FF0FF3070BD002018
:10183000E562C4E90150E06820F48030E0600020F7
:1018400070BD10B50446C06820F02000E060A16AB9
:10185000A06988420DD02046FFF7D0FFE06820F451
:10186000405040F01000E060A06AA0612069E06292
:10187000606044F24001E0688843E06010BD000011
:101880001000020010B542485421FFF713FB4148F5
:101890005421FFF70FFB40485421FFF70BFB3F4952
:1018A0003B483C4A3F4B08603D490A603A49196051
:1018B000531C0365481C1065012008653B48344AE9
:1018C00039A17844FFF70EF920B9384878440A382E
:1018D00001F038F837482F4A35A17844FFF702F96C
:1018E00020B9344878440A3801F02CF832482A4AA2
:1018F0002FA17844FFF7F6F820B92F4878440A382A
:1019000001F020F840232248DC000021224600F0AC
:10191000D6FF20B125487844543801F013F81D480B
:1019200022464023002100F0CAFF20B1214878441C
:10193000543801F007F8184822461023002100F01F
:10194000BEFF002806D01C487844BDE81040563839
:1019500000F0F8BF10BD104870B5006D20F0010414
:101960000B48FFF735F90B48FFF732F90A48FFF744
:101970002FF909E0206D20F001052046FFF728F936
:101980002046FEF7A6FD2C46002CF3D170BD0000CA
:10199000DCEF002030F0002084F00020EC03002079
:1019A000F0030020F403002072000000822E0200E9
:1019B000770000006E2E02005A2E020070B50C4611
:1019C000016800204A1C3ED03C22B1FBF2F302FB2E
:1019D0001313B1FBF2F12360B1FBF2F302FB13131B
:1019E000B1FBF2F118226360B1FBF2F302FB1313B7
:1019F000B1FBF2F146F2E0320A440721A360B2FBE8
:101A0000F1F301FB132140F2B553B2FBF3F5A161F1
:101A1000B2FBF3F103FB15228900B2F5B77F08D3BF
:101A20009B10521EB2FBF3F52944B2FBF3F503FB06
:101A300015220F4BE261616189077B440CD03B2A80
:101A40000AD3521C08E02C212046FFF733FA01206C
:101A5000E0600AE0521A401C195C9142FAD9521C0B
:101A6000C4E903204FF0FF302062204670BD000023
:101A70001E2D02007047034640688C46002818BFA0
:101A800088423CBF03464068F8D31868184488422F
:101A900007D00CF1030020F00700001D411A521A74
:101AA0000146081D0A60FEF714BD30B5B0F10A0208
:101AB0004FEA900E71F100034EEA817EB0EB0E000A
:101AC00061EB91014FEA101E4EEA017E10EB0E0011
:101AD00041EB11114FEA102E4EEA016E10EB0E0091
:101AE00041EB11214FEA104E4EEA014E10EB0E0071
:101AF00041EB1141401841F100014FEAD00040EAAA
:101B000041704FEAD10110EB80054FEA810444EAAD
:101B1000907444EB01046D1944EB0404521BA3417F
:101B20004FF0000348BF0A3200D530BD401C41F1E0
:101B3000000130BD10B50446FEF790FC0068005D62
:101B400000F0010010BD70472DE9FF4F0C461E4606
:101B50004FF0FF378BB0D2E90001DDF860800A90CA
:101B60008A46C1F30A5505B93D46002108464FF0A3
:101B70000000BAF1000F00F4400005DA00EB80002D
:101B80004FF4400101EA50004FEA9059B9F1010FBA
:101B900000DDB9460A9850EA4A000ED044F61050CB
:101BA000A5F2FF3545432F14B8F1000F1ED0754242
:101BB000291E1EDDC9F100021CE0B8F1010F4FF033
:101BC000000001D0302103E0F24305E02154401C25
:101BD000B042FBDB30460022002121540B99C1F8B2
:101BE0000880C1E900200FB0BDE8F08FBD1B6D1C5F
:101BF000DEE74A4600DA694206A800F017FF06ABA6
:101C000093E8070003AB83E8070050460A9900F009
:101C1000F5FF8DE80700A0F500501F3800900398ED
:101C2000002D0ADD42F21F014A460844002303A9A1
:101C30000390684601F05EFA09E0A0F500504A46BC
:101C40001F38002303A90390684601F068FA8DE865
:101C500007000004000C03D04FF0FF30410800E003
:101C60001046B8F1000F03D00022009215461EE086
:101C7000751E05D4FFF719FF303262556D1EF9D578
:101C8000B3460122084302D000227F1C04E02078E2
:101C9000302801D100227F1E002A099784D01DE040
:101CA000112D07DAFFF701FF303262556D1C50EA43
:101CB0000102F5D1084302D00098C8B10EE000211E
:101CC000681E05E0235C625C63542254401E491C7C
:101CD0008142F7DBAB46A81B401E0990002004F8A8
:101CE0000B000B98099AC0F80880C0E9002B7AE72E
:101CF00011264FF0000857E72DE9F04F88460446BB
:101D0000D21D22F0070191B0D1E90001CDE90A010D
:101D100009F05EFB02460B98C00F01D02D2007E0B2
:101D20002068810701D52B2002E0202101EAC000B4
:101D3000032A099001D0072A05DB034641462046C5
:101D400000F034FE0BE12078800601D5E06900E068
:101D50000620B8F1650F814606D0B8F1660F18D09D
:101D6000B8F1670F70D131E00020B9F1110F009088
:101D700001DB112301E009F101030AAA01A90CA862
:101D8000FFF7E2FEDDE90C70002609F1010583464C
:101D900047E001204B4600904FF000470AAA01A9F6
:101DA0000CA8FFF7D1FEDDE90DB00C995D460026C9
:101DB00010B909F101000D18B9EB050003D4C0F109
:101DC000FF3609F10105A5EB09002BE0B9F1010F80
:101DD00001DA4FF001090020B9F1110F00904846D7
:101DE00001DD112300E003460AAA01A90CA8FFF7B0
:101DF000ABFEDDE90C704D460026834620780007D7
:101E00000AD4AB4500DA5D4601A8012D04DD411975
:101E100011F8011C302907D04F4502DA17F1040FE1
:101E200004DA012082460FE06D1EEEE7002F02DC8F
:101E3000ED1B3E4403E0781CA84200DD7D1CB81B6E
:101E400000F1010A4FF000472078000703D4AA45AB
:101E500001DB4FF0FF3A0021B7F1004F0DF14308CD
:101E60008DF8431024D002202B23002F01DA7F426B
:101E70002D230A21021EA0F1010000DC5FB197FBB7
:101E8000F1FC97FBF1F201FB1C7C17460CF1300CC6
:101E900008F801CDEEE7A8F10100037021880905DB
:101EA00001D5452100E06521A0F1010800F8011CE1
:101EB00009980FA9A1EB0807FF1D00B101204119E6
:101EC00001EBEA70A1693844081A401EA06120782D
:101ED000C00602D42046FEF7CFFB099828B1D4E90A
:101EE00001219047206A401C20622078C00622D53C
:101EF0002046FEF7C1FB1EE0002E04DBB34502DDE9
:101F000001A8805D00E03020D4E901219047206ADB
:101F1000401C2062761CAAF101005FEA000A0AD187
:101F2000FFF74AF9C0680168405CD4E90121904795
:101F3000206A401C2062281EA5F10105DCDC07E0B8
:101F4000D4E9012118F8010B9047206A401C206257
:101F5000381EA7F10107F3DC2046FEF7A3FB0320A0
:101F600011B041E62DE9F04F04460D46D21D22F096
:101F7000070089B0D0E900974846394609F028FAA9
:101F80000246F80F01D02D2307E02068810701D514
:101F90002B2302E0202101EAC0038DF820300BB191
:101FA000012000E00020032A824601D0072A04DB3A
:101FB0002946204600F0FAFC3FE12078800601D453
:101FC0000D2500E0E569C7F30A560D2D49DA002119
:101FD0004FEA175B08464FF00000002F00F4400066
:101FE00007DA00EB80004FF4400100EBD07001EA0B
:101FF00060008115012901DD4FF0FF3100224FEA19
:10200000850CBCF1180F06D31346ACF118004FF045
:102010008052C24003E04FF4801323FA0CF30CF11A
:102020000C0CBCF1200F04D3ACF1200C09FA0CF01D
:1020300001E007FA0CF000294FF0004801DD18B963
:102040000FE00ED140450CD319EB02095F4121B9D5
:10205000404502D19F4329EA0209BBEB175F00D03C
:10206000761C2088000502D57B48784402E07A4837
:102070007844193808AA302302F80A30037C0AF1A0
:102080000101002E0AF1020A53546A4602DC4FF0A5
:10209000300101E04FF031014FF001088DF80010E0
:1020A00002D0A6F2FF3603E059EA470100D06B4E9A
:1020B000002D02DC2178090704D54FF002082E21FB
:1020C0008DF80110C44600210BE0C7F303433F0124
:1020D000C35C491C6D1E02F80830052908F101088F
:1020E00001DA002DF1DC00210CE000EB1973491C32
:1020F0001B786D1E082902F808304FEA091908F10B
:10210000010801DA002DF0DC21688B0602D516E00B
:10211000A8F10108E04505DD02EB080313F8013CD6
:10212000302BF5D0B8F1000F09DD02EB080313F8EE
:10213000013C2E2B03D1090701D4A8F10108002D81
:1021400005DD3E2102F808106D1E08F10108407CF3
:10215000002E02F8080008F1010804DA2D2076426A
:1021600002F8080002E02B2002F808000A214FF4D0
:102170007A70864208F101080BDB96FBF0F33033EE
:1021800002F8083096FBF0F308F1010800FB136633
:1021900001E0642E0CDB642096FBF0F3303302F890
:1021A000083096FBF0F308F1010800FB136601E02C
:1021B0000A2E06DB96FBF1F0303002F8080008F139
:1021C000010896FBF1F001FB1060303002F80800C6
:1021D000A16908F1010808EB050202EB0A00081AE0
:1021E000A0612078C00602D42046FEF745FA216A95
:1021F00008AE01EB0A00206204E0D4E9012116F8E0
:10220000010B9047BAF1010AF7D22078C00602D537
:102210002046FEF731FA6E4609E016F8010B3E281B
:102220000FD0D4E901219047206A401C2062B8F108
:102230000108F2D22046FEF735FA09B00320BDE8C6
:10224000F08F206A2844206203E0D4E90121302085
:1022500090476D1EEBD3F8E71527020002FCFFFF45
:1022600010B5436913B1AFF3008001E0FFF7C6F882
:10227000012010BD128800F1240182840022C28452
:102280000122EDE711684FF0FF32E9E72DE9F34F46
:102290004FF0000A0C4656468DB001200C9001F11B
:1022A0000C000B9062690B9801219047051E2DD000
:1022B000252D2CD0216A8847C0B162690B98012175
:1022C0009047216A88470028F7D16269411E0B9820
:1022D000904700E0761CA1690D988847216A8847DD
:1022E0000028F7D1E1690D988847DBE7A1690D98CF
:1022F0008847A842074601D1761CD3E7E1690D98CB
:1023000088477F1C02D1BAF1000F6FD06BE1626980
:102310000B9800273D46394690472A2804D1626928
:102320000B98012190470125DFF8D08262690B9854
:1023300001219047A0F130010A290AD24745E5DC86
:1023400007EB870100EB4107303FDFD445F0100574
:10235000ECE7E90601D46FF000476C280AD04C285E
:1023600014D0682815D06A280DD074281CD07A287B
:102370001AD01DE062690B98012190476C2802D0A9
:1023800045F0040514E045F002050DE045F0200598
:102390000AE062690B9801219047682802D045F055
:1023A000080505E045F4006562690B980121904736
:1023B000C4E9015765283DD019DC58287AD00CDCD7
:1023C000452837D004DC252826D041289ED131E08D
:1023D00046282FD0472899D12CE05B2877D0612858
:1023E00028D063287CD0642823D15AE0F6E06F28F7
:1023F00048D008DC66281DD067281BD0692821D06A
:102400006E2816D127E0702845D0732868D075282B
:1024100047D078280DD14DE0A1690D98884725282F
:1024200005463FF469AFE1690D9888476D1C3FF49C
:102430006AAFD8E00D9923466A466FF00100AFF30A
:102440000080C5E045F0400023464FF00002606088
:10245000A80736D43EE0E8077FF447AF2068011DA7
:1024600021600068290501D506701BE7290701D501
:10247000068017E7A90703D5F117C0E9006111E746
:1024800006600FE745F0400023464FF00802606009
:10249000A80716D41EE040F60E0125EA0100606090
:1024A00016E045F0400023464FF00A026060A8079E
:1024B00007D40FE045F040006060A80708D5234628
:1024C00010220D996FF00100AFF3008080E007E06B
:1024D000102223460D996FF00100AFF3008077E0E2
:1024E0004FF0000963284F46C8464B46CB4602D002
:1024F0005B2806D038E0E80601D40120A06001275F
:1025000032E06269D4F80CB00B98012190475E2844
:1025100007D14FF0010949466269D4F80CB00B9815
:102520009047216939B900210A4603AB43F82120BD
:10253000491C0829FADBD8B3216949B308F101081D
:1025400062690B98012190475D28F4D1B9F1000F21
:1025500009D0002003A951F82020D24341F82020BF
:10256000401C0828F7DB03AB2069002820794FEADC
:1025700040701ED05B462246CDF80080CDE9019721
:102580000D9900286FF0010020DAAFF300801FE002
:10259000C11703AA00EBD1614B1121F01F0102EB1F
:1025A0008302411A13680120884003431360C7E780
:1025B00019E00D99224600286FF00100009702DA19
:1025C000AFF3008004E0FEF70FFA01E0AFF3008004
:1025D00000280ADA401C06D10C9820B14FF0FF30D9
:1025E0000FB0BDE8F08F5046FAE7E90701D10AF1D4
:1025F000010A064400200C9054E60000CCCCCC0C20
:102600002DE9F05F824615468B4600270AF101044A
:10261000B9460078302801D09DB113E014F8010BC1
:102620000127782803D0582801D045B10AE00DB120
:10263000102D07D1002714F8010B102502E0082502
:1026400000E00A250026B0460EE005FB080005FB69
:1026500006F101271FFA80F801EB1046B6F5803F1E
:1026600000D3B94614F8010B2946FEF79BFF00285A
:10267000EBDABBF1000F05D00FB1641E00E0544649
:10268000CBF80040B9F1000F06D0FDF7EFFE0221B4
:102690000160C81EBDE8F09F48EA0640FAE7007BEB
:1026A00000F0800070472DE9F04705460C46C868E9
:1026B00020F4201040F48000C860800602D508464F
:1026C000FFF7BFF8E06841F282014FF0FF390140A7
:1026D000022903D02046FFF75DF8B5E000F4204161
:1026E000B1F5004F0FD1C00306D56168E06A88429A
:1026F00000D80846606006E02069E06260606069BA
:10270000FEF74CFDA061A0680022EEB200280DDAB1
:10271000E1688B050AD4C043A06041F49030226088
:10272000E0606068411C61600670A5E0E06890466A
:10273000226040F40050E060206968BB6069FEF7E9
:102740001FFD012704F12405A0B1A08910F4407FEA
:1027500008D0E069FDF78EFE206118B1E06840F412
:10276000006016E0E7612561E06820F4407040F405
:1027700080600EE0E069FDF77DFE00282061F1D069
:10278000E06840F4006010F4407FE06002D140F463
:102790008070E06020696060E06825696FF0010A80
:1027A000C1051FD56168E06A884200D80846411B10
:1027B00004D022462846FEF7F7FFF0BBE06801028E
:1027C00003D5E562C4E9015854E0691CE162616027
:1027D000E16940F48030491EC4E9021030462E7091
:1027E000BDE8F087010202D500F480320AE060689B
:1027F000411C61600670E0680A2E40F48030E060A1
:1028000006D00022E16A6068814203D90B4602E0EB
:102810000122F7E70346A7895B1B7F0503D4E7691D
:102820009F4200DDE2B1814200D80146E5620F1A05
:10283000C4E90158002B09DD00E005E022461946F5
:102840002846FEF7B1FF08B14846C9E747B1A0697D
:10285000E5626560C01BA061E06840F01000E060C8
:10286000E068000208D56168A069E562491B084478
:102870006560A0615046B3E73046B1E710B5014648
:10288000C268900703D0900607D5886A0AE0FDF772
:10289000EDFD01210160881E10BD8B694868184458
:1028A0000B69C01A91F848301BB191F84910401AD1
:1028B00010BD1103FCD50028FADD401E10BD70B517
:1028C000C468A50713D0650211D4B2F5807F09D082
:1028D000B2F5007F06D0B2F5806F08D1012300F178
:1028E000240106E05D1E6FF07F46B54201D3012052
:1028F00070BD0161C361416024F470611143C16026
:10290000002070BD70B516460C460546FDF7A6FDC5
:10291000036893F80101012806D0FF2C0FD8185D39
:1029200068B101202C7070BDD3F8070132462146F2
:1029300003F2071303442846BDE8704018474FF0E0
:10294000FF3070BD10B500F0F1F8BDE8104000F0A8
:10295000E8B810B500F004F9BDE8104000F0E1B8A7
:102960007546FEF721FCAE4605006946534620F049
:102970000700854618B020B5FDF75EFDBDE8204094
:102980004FF000064FF000074FF000084FF0000B2B
:1029900021F00701AC46ACE8C009ACE8C009ACE8DE
:1029A000C009ACE8C0098D46704700002DE9F04130
:1029B0001F46044603260168072A01F4006004DB71
:1029C00008B116A505E016A503E008B115A500E0BD
:1029D00015A521F010002060A069C01EA0610FB1F4
:1029E000401EA0612046FDF747FE4FB1D4E901210A
:1029F00038469047206A401C2062C01C206206E0D6
:102A0000206AFAE7D4E9012115F8010B9047761EF8
:102A1000F8D22046FDF746FEBDE8F0814E414E005B
:102A20006E616E00494E4600696E66002DE9F04702
:102A3000814616468AB0354878440DC88DE80D00A9
:102A400032487844801C03AC0DC884E80D0041F680
:102A50009B300844372190FBF1F290FBF1F5A5F192
:102A6000800501FB12041B3C02D56442012000E0FA
:102A70000020DFF898A080460027FA44AAF1BE0A99
:102A80000EE0E0070AD03246684607EB4701012313
:102A90000AEB810100F043FB8DE8070064107F1C06
:102AA000002CEED1194F7F44AE3F19E0E80715D056
:102AB00007EB04100DF1180A90E80E008AE80E00EA
:102AC000C068F04201D1981908903246012306A946
:102AD00003A800F024FB03AB83E807006D10641C1F
:102AE000002DE3D14FF0010332466946B8F1000FE3
:102AF00003A802D000F0FEFA01E000F010FBC9E9E3
:102B00000001C9F808200AB0BDE8F087D81D02000E
:102B100010B50446AFF300802046BDE81040FDF735
:102B2000FCBB002801D000F043B8704710B5014647
:102B300002A000F043F8012010BD000053494752A5
:102B4000545245443A2052656469726563743A2070
:102B500063616E2774206F70656E3A20000000007C
:102B600010B5012805D0002103A000F027F80120AE
:102B700010BD09A1F8E7000053494752544D454D97
:102B80003A204F7574206F662068656170206D650E
:102B90006D6F7279000000003A2048656170206D09
:102BA000656D6F727920636F727275707465640001
:102BB00001491820ABBEFEE72600020070B50546AD
:102BC0000C460A2000E06D1C00F011F835B12878A1
:102BD0000028F8D102E0641C00F009F814B1207854
:102BE0000028F8D1BDE870400A20AFF3008008B596
:102BF00069468DF800000320ABBE08BD5FEA400CBB
:102C000008BF91F0000F4FEA8C234FEAC12243EA3C
:102C100051514FEA1C5018BF00F5F0404FEA300008
:102C200018BF41F000415FEA6C5C00F02980BCF104
:102C3000FF3F08BF40F080407047130C06BF1204EE
:102C40004FF0100C4FF0000C130E04BF12020CF1E9
:102C5000080C130F04BF12010CF1040C930F04BFF6
:102C600092000CF1020CD30F04BF52000CF1010CC6
:102C700011464FF00002A0F11F00A0EB0C007047BE
:102C800011F0004F08BF704731F000413FF4D5AF5D
:102C90000B0C06BF09044FF0100C4FF0000C0B0E8C
:102CA00004BF09020CF1080C0B0F04BF09010CF161
:102CB000040C8B0F04BF89000CF1020CCB0F04BF76
:102CC00049000CF1010CCCF12003A0EB0C0022FA1E
:102CD00003F302FA0CF241EA030100F1010070472C
:102CE00020F07F4C80EA030023F07F47ACEB070322
:102CF00003F57C5300F0004003F1FF032DE9804908
:102D00004FEA154B09B44FEA144325EA0B4E24EA67
:102D100003480FF2042606EB132749083E785FEAC2
:102D2000320203FB0667C7F5000707FB06F64FEA0A
:102D300054374FEAD64606F1020607FB066CCCF183
:102D4000005C4FEA1C472CEA074C07FB06F40CFB1F
:102D500006F504EB15464FEA961634BF00204FF0F7
:102D600000404FEAD13706FB07FC4FEA1C4C0CFB36
:102D70000BF7D21B03FB0CF761EB07010CFB0EF703
:102D8000B0EB074072EB17420CFB08F734BFA2EB25
:102D90000742B2EB074261EB17414FEA0C444FEA9E
:102DA000910706FB07FC4FEA1C4C0CFB0BF7B0EB42
:102DB000C74072EB573203FB0CF734BFA2EBC7429C
:102DC000B2EBC74261EB57310CFB0EF7B0EBC7001B
:102DD00072EB57720CFB08F734BFA2EBC702B2EBE1
:102DE000C70261EB5771039F4FEA816141EA92117B
:102DF00004EBCC044FEAD1374FEA826206FB07FCB2
:102E000042EA90124FEA80604FEA1C4C0CFB0BF731
:102E1000D21B03FB0CF761EB07010CFB0EF7B0EBC9
:102E2000074072EB17420CFB08F734BFA2EB0742D6
:102E3000B2EB074261EB17414FEA8C554FEA91071D
:102E400004EB9C2406FB07FC4FEA1C4C0CFB0BF725
:102E5000B0EBC74072EB573203FB0CF734BFA2EB69
:102E6000C742B2EBC74261EB57310CFB0EF7B0EB38
:102E7000C70072EB57720CFB08F734BFA2EBC70216
:102E8000B2EBC70261EB577115EB4C254FEA81613C
:102E900041EA92114FEA82624FEAD13742EA901238
:102EA00006FB07FC44F100044FEA80604FEA1C4C2B
:102EB0000CFB0BF7D21B03FB0CF761EB07010CFBC0
:102EC0000EF7B0EB074072EB17420CFB08F734BF6C
:102ED000A2EB0742B2EB074261EB174115EB1C1561
:102EE0004FEA813141EA92414FEA823242EA90420E
:102EF0004FEA80304FEA0C7644F1000448EA03437D
:102F00004EEA0B484FF0000EB2EB080C71EB0307D2
:102F100024BF624639464EEB0E0E4FF0000B0018F0
:102F2000524149414BEB0B0BB2EB080C71EB030721
:102F30007BF1000B24BF624639464EEB0E0E4FF07C
:102F4000000B0018524149414BEB0B0BB2EB080C44
:102F500071EB03077BF1000B24BF624639464EEB51
:102F60000E0E51EA020718BF46F0010616EB0E7668
:102F700055F1000254F1000103D5BDE88901BDE817
:102F80000088BDE88901BDE80048B619524141EB0F
:102F90000101A3F10103704780807F7E7D7C7B7AF5
:102FA0007978777676757473727171706F6E6E6DF5
:102FB0006C6C6B6A6A69686867666665646463639B
:102FC00062616160605F5F5E5E5D5D5C5C5B5B5A21
:102FD0005A5959585857575656555555545453538E
:102FE00052525251515050504F4F4F4E4E4D4D4DE9
:102FF0004C4C4C4B4B4B4A4A4A4949494848484734
:103000004747474646464545454444444443434371
:103010004342424242414141002B9C4630D477001A
:103020002BD01CB54FEA370703B44FF010004FF018
:103030001001BAF1000F06D0BCF1000FDCBF40F068
:10304000080040F008014FF000000FBCBDE8104040
:103050000BF1010BBBF1010F08BF5FEA170722BF9D
:1030600012F1010211F101014FF0004143F100039F
:1030700000F0004043EA00007047F9D35708D0E75A
:1030800046EA064613F1400F4FEA16461FDD13F1DC
:10309000200FDFBF16430A46002120335B42BED01B
:1030A000C3F1200746EA064602FA07F74FEA16463A
:1030B00046EA0706C3F1200722FA03F201FA07F7EE
:1030C00021FA03F14FF0000342EA0702A7E746EABC
:1030D000020646EA06464FEA164646EA0106BCBF25
:1030E00046EA0646360C4FF000034FF000024FF060
:1030F000000194E72DE9804C9A46934670B491E81C
:10310000380007C831EA400C48BF34EA430C03D505
:10311000FFF7E6FDFFF780FFF0BCBDE8008C2DE96E
:10312000804C9A46934670B491E8380007C810F076
:10313000804F08BF13F0804F03D100F005F8FFF770
:103140006BFFF0BCBDE8008C20F07F4780EA0300F5
:1031500023F07F4C07EB0C03A3F57C5300F00040F9
:10316000A3F1FE0392F0000F00F0B38095F0000F82
:1031700000F077802DE901494FEA11404FEA1446EB
:1031800021EA004800FB06FC24EA064708FB06F695
:1031900007FB08F800FB07F718EB06484CEB164C4A
:1031A0004FEA124B18EB07484FEA15464CEB174015
:1031B00022EA0B4E0BFB06FC25EA06470EFB06F641
:1031C00007FB0EFE0BFB07F71EEB064E4CEB164CF7
:1031D0004FF000061EEB074E4CEB174B18EB0B089D
:1031E00040F1000018EB0E0B58EB000840F1000016
:1031F0008F1A4FF000013CBFC943661B14BFB5EBEB
:10320000040C00213CBFC943F61B4FEA17444EEAA9
:103210008E0E27EA04454FEA1C4704FB07622CEA9E
:10322000074C05FB07F70CFB05F604FB0CFC16EB43
:10323000074642EB174216EB0C4642EB1C421BEBD7
:10324000060658EB0202414146EA9E0601D5BDE85A
:103250000189B619524141EB0101A3F10103BDE817
:1032600001894FEA14454FEA114724EA054621EA4D
:10327000074C05FB07F406FB07F70CFB06F105FB03
:103280000CFC11EB074144EB17444FEA124711EBDA
:103290000C4144EB1C4422EA074C05FB07F206FBF9
:1032A00007F70CFB06F605FB0CFC16EB074642EB9A
:1032B000174216EB0C4642EB1C456A1854F100010C
:1032C00048BF7047B619524141EB0101A3F1010318
:1032D000704795F0000F37D04FEA11424FEA14477C
:1032E00021EA024624EA074C02FB07F106FB07F736
:1032F0000CFB06F402FB0CFC14EB074441EB1741FA
:103300004FEA154714EB0C4441EB1C4125EA074CEE
:1033100002FB07F506FB07F70CFB06F602FB0CFCAD
:1033200016EB074645EB174516EB0C4645EB1C42E2
:10333000121951F1000148BF7047B619524141EBD3
:103340000101A3F1010370474FEA14454FEA114709
:1033500024EA054621EA074C05FB07F106FB07F7BF
:103360000CFB06F24FF0000605FB0CFC12EB0742CB
:1033700041EB174112EB0C4251EB1C4148BF704727
:10338000921841EB0101A3F10103704770B50546A6
:10339000AC6B206C00F0500050BB206C40F400700F
:1033A00020642068806800F04050E8B9207ED8B9D9
:1033B0002068C06A00F4700020B12068806800F4C2
:1033C000806088B92068406820F02000216848604B
:1033D000206C20F480702064206C00F4805018B9B8
:1033E000206C40F001002064204601F027FD0BE036
:1033F000206C00F0100018B1204601F02AFD03E017
:10340000A06BC16C2846884770BD70B50546AC6B93
:1034100040202064606C40F004006064204601F0AD
:1034200018FD70BD70B50446A56B284601F010FD6F
:1034300070BD000010B5024801F00CFD10BD000089
:10344000F803002055494A6822F440324A604A682D
:1034500043681A434A600268526822F48072036823
:103460005A6002685368026943EA022203685A609C
:103470000268526822F0407203685A60026852681B
:1034800083681A4303685A600268926822F40062F3
:1034900003689A6002689268C3681A4303689A6076
:1034A0003F4B826A9A4218D00268926822F070629A
:1034B00003689A6002689268836A1A4303689A6094
:1034C0000268926822F0405203689A60026892682B
:1034D000C36A1A4303689A600BE00268926822F09C
:1034E000706203689A600268926822F04052036832
:1034F0009A600268926822F0020203689A60026889
:103500009368027E43EA420203689A602022125CBA
:10351000A2B10268526842F4006203685A6002680D
:10352000526822F4604203685A6002685368426A33
:10353000521E43EA423203685A6005E0026852684C
:1035400022F4006203685A600268D26A22F47002B0
:103550000368DA620268D36A828B521E43EA02521F
:103560000368DA620268926822F4007203689A6063
:103570000268936890F8302043EA422203689A6018
:103580000268926822F4806203689A600268936815
:10359000426943EA822203689A607047002301402F
:1035A0000100000F10B550220249034801F0DAFD76
:1035B00010BD00004CE30020F803002000B58FB0E0
:1035C000242106A8FDF776FC0D208DF8190016229F
:1035D00009A96846FDF712FC042006A90EC905F0EA
:1035E000E3FF0FB000BD000070B594B004460E4676
:1035F000002011901290139014210CA8FDF75AFC92
:10360000202104A8FDF756FC0020019002900390B1
:1036100001F01AFA054604A80CAB11AA0EA10090FD
:103620002046FDF7C3F911A8FDF74EFA01900CA84A
:10363000FDF74AFA0290DDE9010148436421B0FB3D
:10364000F1F0039001A806F083FC08A1012008F026
:103650009BFE002014B070BD255B5E205D20255BC5
:103660005E205D20255B5E205D00000041646A7580
:1036700073745F4D657465725F506172616D204F48
:103680004B00000010B51EF055F810BD70B5044693
:103690000D46012D08D10A4A32F81410094A52F891
:1036A0002400012203F0E0F945B9054A32F814106C
:1036B000044A52F82400002203F0D6F970BD00003D
:1036C0006E460208C003002010B501460022002407
:1036D000002300BF1CE0062910D1124800EB0210A5
:1036E00030F81100B0F5AF6F10DD0E4800EB02109E
:1036F00030F811000344601C04B207E0094800EBF5
:10370000021030F811000344601C04B2501C02B2D5
:103710000A2AE0DB052C02DDB3FBF4F300E0002312
:1037200098B210BD4CE300200C4A12680C4B9A4230
:1037300013D149B948F6A04242436423B2FBF3F2E5
:10374000064B1B689A6308E048F6A0424243642394
:10375000B2FBF3F2014B1B689A63704764EE0020E2
:103760000000014070B50446074A32F81410074AB9
:1037700052F8240003F066F906460EB9002500E071
:103780000125284670BD000064460208B0030020F1
:1037900001207047704700B50246104600F001F85E
:1037A00000BD01460020704710B50446A521204603
:1037B00000F002F810BD000033B599B004460025B2
:1037C00000201890582102A8FDF774FB0CBB36228C
:1037D0003C4902A8FDF712FB3A48C08EADF83E0006
:1037E0003848816B1091808FADF844003548C08F08
:1037F000ADF8460011223349403112A8FDF7FEFA18
:10380000304890F851008DF859002E48406D1790BF
:1038100046E0012C21D136222B4902A8FDF7EEFA11
:103820002948C08EADF83E002748816B1091808FEB
:10383000ADF844002448C08FADF84600112222495B
:10384000403112A8FDF7DAFA1F4890F851008DF8C0
:1038500059001D48406D179022E0022C20D13622DD
:103860001A4902A8FDF7CAFA1848C08EADF83E0002
:103870001648816B1091808FADF844001348C08FBB
:10388000ADF8460011221149403112A8FDF7B6FAF1
:103890000E4890F851008DF859000C48406D179073
:1038A0000B480068012318AA1AA9009002A804F086
:1038B00079F8054615B12046FFF76DFF9DF86000C9
:1038C0001BB030BD2CEF002084EF00204C05002001
:1038D000E803002010B5024803F0D2F810BD000044
:1038E000C804002000BFFEE710B5024801F015FD36
:1038F00010BD0000A004002010B5024801F00DFD2D
:1039000010BD0000A004002010B5024801F005FD24
:1039100010BD0000A004002010B5024801F0FDFC1D
:1039200010BD0000A004002010B5044602A1012033
:1039300008F02AFD10BD0000737461727420636189
:103940006E207465737400002DE9F04781460025F0
:1039500000213520FFF7E8FE00201CF0D3FC804654
:103960004FF47A7012F068F9002000F09FFF0446CF
:10397000642094FBF0F100FB114694FBF0F7334612
:103980003A460AA1012008F0FFFC002000F0F6FFF3
:10399000012800D1012500216420FFF7C5FE07A101
:1039A000012008F0F1FC2846BDE8F0874350203D97
:1039B0002025642E25322E326400000050574D2001
:1039C000B2C9D1F9B2E2CAD4BDE1CAF80000000020
:1039D00030B502464FF6FF7012E032F8024B6040FD
:1039E000082308E000F0010414B14AF2010400E0E9
:1039F000002484EA60001C1EA3F10105ABB2F1D1E2
:103A00000C1EA1F10105A9B2E7D130BD30B58FB0D0
:103A100004460D468DF8185023208DF819008DF8B6
:103A20001A40162209A96846FDF7E8F9002006A900
:103A30000EC905F0B9FD03A1002008F0A5FC0FB0E8
:103A400030BD0000CDA8D6AAB9D8BBFA000000004E
:103A500070B590B004460D468DF81C4021208DF8BD
:103A60001D00414800EB84104078012805D03E48F5
:103A700000EB84104078022802D1012010B070BD04
:103A8000394800EB84104078002837D12868C828CE
:103A900001D80320F2E716220AA96846FDF7AEF91D
:103AA000002007A90EC905F07FFD2F4800EB841008
:103AB0002968C162287A2C4901EB841148732A498C
:103AC00001EB8411E86808617121274800EB84103C
:103AD00080F83010244901EB84116868486122485D
:103AE00000EB841005F110014EC91C304EC01FA11F
:103AF00001206A6808F048FC0020BFE71A4800EB84
:103B00008410407803282DD1174800EB8410007BE7
:103B1000072801D10120B1E7134800EB841000F120
:103B20001C01102205F11000FDF7A8F8C0B91622FB
:103B30000AA96846FDF762F9002007A90EC905F039
:103B400033FD094800EB84102968C162064800EB88
:103B5000841005F110014EC91C304EC000208DE7C5
:103B600002208BE7012089E728D70020CDA8D6AA1C
:103B7000BFAABBFA20617070206C69737420256441
:103B80000000000010B5024801F050FE10BD00001A
:103B90006008002010B5024801F048FE10BD00008A
:103BA0000008002010B5024801F040FE10BD0000E2
:103BB000C008002010B5024801F038FE10BD00001A
:103BC000A007002010B5024801F030FE10BD000033
:103BD000A405002010B5024801F028FE10BD000029
:103BE0004004002010B5024801F020FE10BD000086
:103BF0002009002010B5024801F018FE10BD000099
:103C0000800900200146087810381823B0FBF3F231
:103C10000848805CC865032A05D908686FF3090065
:103C2000001D886503E008686FF309008865886DEA
:103C300070470000843E0208014600208A6A8B69B2
:103C4000CBB932B1012A0DD0022A03D0032A10D1F8
:103C50000EE000BFCB6A03F08073B3F1807F00D128
:103C6000012007E0CB6AB3F1C07F00D1012001E061
:103C700000E000BF34E08B69B3F5005F1AD132B1C8
:103C8000012A07D0022A03D0032A11D10AE000BF7B
:103C900001200EE0CB6A03F08073B3F1807F00D186
:103CA000012006E0CB6AB3F1C07F00D1012000E023
:103CB00000BF15E032B1012A05D0022A04D0032A40
:103CC0000CD103E000BF00BF012008E0CB6A03F085
:103CD0008073B3F1807F00D1012000E000BF00BFFE
:103CE000704730B50468246824F4802405682C608B
:103CF000046863608468402C04D10468A26004688E
:103D0000E16003E00468A1600468E26030BD02463F
:103D1000908808B900207047B2F90000B2F902306B
:103D2000984202D1907901281AD1B2F9003098B2A4
:103D3000401C00B210809068C05C0870B2F90000AE
:103D4000B2F90430984201D100201080B2F900008D
:103D5000B2F90230984201D0002090710120DAE7D8
:103D60000020D8E7704700000121032006F007FA81
:103D700002A1012008F008FB07F06CFB64656C5F92
:103D8000616C61726D5F64617461206F6B00000033
:103D90000021032006F0F3F902A1012008F0F4FA53
:103DA00007F058FB64656C5F4368617267655F6428
:103DB000617461206F6B000000B506F033F908B143
:103DC000012000BD0020FCE72DE9F04104460D462E
:103DD00016461F463B4632462946204607F060FA03
:103DE000BDE8F0812DE9F04104460D4616461F4618
:103DF0003B4632462946204607F098FABDE8F08156
:103E000010B50146002226E002EB82040B6903EBA9
:103E1000C4000023036043608360C36003624362A5
:103E20004FF00043036044F2F8534360436823F0CB
:103E30000043436001F1480343F82200032A07D2FC
:103E400002EB82040B6903EBC4032833C36001E077
:103E50000B69C360521C042AD6D30024CC650C66BF
:103E60008C66CC668C650B6803F580530C69DC604E
:103E700010BD10B50146002222E002EB8204CB689F
:103E800003EBC4000023036043608360C36001F15F
:103E9000180343F82200036843F480130360032AE5
:103EA00007D202EB8204CB6803EBC4032833C36060
:103EB00001E0CB68C360036843F440030360521C15
:103EC000042ADAD300248C620B6803F58053CC6893
:103ED0001C6110BD38B5044600200090206800F534
:103EE0008050806940F48011206800F58050816125
:103EF000206800F5805080690090012001F076FE76
:103F00000099206800F58050816138BD10B50248E5
:103F100001F008FF10BD0000E057002030B5034657
:103F20001479557944EA0520084C0C442064D4786F
:103F30002406957844EA0544557844EA0524157822
:103F400044EA0500014C0C44606430BD008002402E
:103F500010B5A4B0044601208DF83C008DF83D005A
:103F600000200D908DF84B0001208DF84A000020B4
:103F70008DF8480001208DF8300000208DF84C00AD
:103F80008DF83B0014908DF854001D908DF878004A
:103F90001F908DF882008DF880004FF480401090C3
:103FA000C010119000208DF881000BA9204600F070
:103FB00095F901208DF80C008DF80D008DF81D008D
:103FC0008DF80E00002005908DF81C008DF81E0065
:103FD000089001208DF824008DF804000004029060
:103FE000800106904012049001208DF825000020E9
:103FF0000A9000906946204600F010F924B010BDE8
:104000000020704710B502F035FD10BD10B5024814
:1040100002F092F9002010BDE057002070B5044670
:104020000D46164633462A462146044802F0B6F8A5
:1040300010B14FF0FF3070BD0020FCE7E0570020CA
:1040400070B504460D46164633462A4621460448B6
:1040500002F015FB10B14FF0FF3070BD0020FCE7FF
:10406000E05700202DE9F04F80460C46164608F137
:1040700018031A69D3F810904FF0000C53F822106F
:10408000A568E246086800F00040B0F1004F04D097
:1040900003F1140050F8220010B10220BDE8F08FA7
:1040A0000CF1010C2868886048686FF30C00D5F8A3
:1040B00004B040EA0B004860207800F0010038B1FD
:1040C000086820F44000D4F814B040EA0B000860FF
:1040D000207800F0200038B1086820F04060D4F863
:1040E00010B040EA0B000860207800F0040018B11E
:1040F000086840F080000860086840F08050086060
:1041000000BF00BF00BFBFF35F8F00BF00BF00BF95
:10411000086840F0004008605DE0086820F000504A
:10412000086026B1086840F08040086003E0086835
:1041300020F08040086000BF521C042A00D3121FE8
:1041400000BF53F82210086820F08050086008680B
:1041500000F00040B0F1004F04D003F1140050F81B
:104160002200E8B14A4653F82210002714E000BFAD
:1041700000BF00BFBFF35F8F00BF00BF00BF086874
:1041800020F00040086000BF521C042A00D3121F18
:1041900000BF53F822107F1C6745E8D302207DE75B
:1041A0000CF1010CAD682868886048686FF30C005A
:1041B000D5F804B040EA0B0048600AF1010A00BFDC
:1041C00000BF00BFBFF35F8F00BF00BF00BF086824
:1041D00040F000400860A86800289ED126B1086819
:1041E00040F08040086003E0086820F080400860EC
:1041F000086840F00050086003F11400D3F824B0C0
:1042000040F822B01A6172B60AF10100D3F828B062
:104210005844986262B6002040E7000070B5054639
:104220000C46286800F5805086692B480640207BA4
:1042300008B9012000E000208006617B40EA41606F
:10424000617F09B9012100E0002140EA0150A17B12
:1042500040EA415061690843217F40EAC110A17FD3
:1042600040EA8110216A084394F8241040EA810052
:104270000643286800F580508661286800F5805064
:104280008669012001F0B2FC286800F58050866143
:104290002179A06840EA4160A16908432169084387
:1042A00094F8251040EAC110A16A40EA8100216813
:1042B000084340F40001286800F580500160286838
:1042C00000F580500668012001F090FC286800F598
:1042D0008050066070BD0000233FDEF870B50546D3
:1042E0000C46286806683A480640207C08B9012038
:1042F00000E00020C005617C09B9012100E0002137
:1043000040EA8150A1680843E17F40EA01406169C9
:104310000843A17F09B9012100E0002140EA4130B2
:10432000217F40EA0130A1690843217940EA8120D8
:1043300094F8201009B9012100E0002140EA412051
:10434000E17B40EAC110616A084394F8281040EA12
:10435000011006432868066028680668012001F0FD
:1043600045FC28680660286886694FF6417006405B
:10437000A06C000494F84C1009B9012100E0002160
:1043800040EAC110216D084394F85510012900D16D
:1043900000E0002140EAC10094F85610012900D144
:1043A00000E0002140EA810094F85410012900D176
:1043B00000E0002140EA4100064328688661286841
:1043C0008669012001F012FC2868866170BD00003A
:1043D0000F8120FF2DE9F8430446002000904FF0A4
:1043E0000108A66E04F1480050F82650E76E2FE051
:1043F000286A58B9684601F043FF009810B94FF099
:10440000000803E0009828620098A860B8F1000F47
:104410001ED0A06D10B91648686002E044F2F85052
:10442000686000BF00BF00BFBFF35F8F00BF00BF69
:1044300000BF286840F00040286000BF761C042EB2
:1044400000D3361F00BF04F1480050F826507F1EED
:1044500017B1B8F1000FCBD1E06EB84206D0002101
:10446000206800F580508160A666E766BDE8F883A5
:10447000F845008010B5024801F054FC10BD000062
:10448000E057002010B51048006800F01000D0B1CF
:1044900010200D4908600D480078A0B90C4800684C
:1044A000012807D100200B4909684862094803F038
:1044B00059FC08E00648006828B9064803F0A0FC4B
:1044C00001200349086010BD143C0140A8030020EE
:1044D000A403002004E300200246908808B90020CD
:1044E0007047B2F90000B2F90230984201D19079D8
:1044F000C8B9B2F9023098B2401C00B2508090683E
:10450000C154B2F90200B2F90430984201D100203E
:104510005080B2F90000B2F90230984201D1012076
:1045200090710120DCE70020DAE772B600BFFEE7F9
:104530002DE9F041ACB00746884680210CA8FCF775
:10454000B9FC242103A8FCF7B5FC002600240120B7
:1045500005F021FE0646C82011F06EFB002E4BDD53
:104560000025751E45E0681E81B26A46012005F0EF
:1045700010FE242103A8FCF79DFC9DF8002020A13B
:104580000CA8FCF763F80446DDF8011003A814F04A
:10459000F9F80CA9081903AA1EA1FCF757F804445E
:1045A000242103A8FCF786FCDDF8051003A814F00D
:1045B000E9F80CA9081903AA16A1FCF747F8044466
:1045C0009DF809200CA9081913A1FCF73FF8044431
:1045D0009DF80A200CA908190FA1FCF737F804442C
:1045E0000CAA0EA1012007F0CFFE0A2011F024FB37
:1045F0006D1E002DB7DA00BF01202CB0BDE8F081A0
:104600006578706F72745F616C61726D2025642CC7
:104610000000000025732C0025642C002573000089
:104620002DE9F043E1B08046894698213BA8FCF78C
:1046300041FC34212EA8FCF73DFC00260025002477
:10464000C82011F0F9FA002005F0A5FD0646002E5D
:104650007EDD751E84E0A9B201AA002005F099FD57
:1046600000287CD198213BA8FCF724FC2EA80199B6
:1046700014F088F82EAA3EA13BA8FBF7E7FF0446FA
:1046800034212EA8FCF716FCDDF837102EA814F004
:1046900079F83BA908192EAA3AA1FBF7D7FF0444E1
:1046A0003C210798B0FBF1F73BA908193A4636A11F
:1046B000FBF7CCFF044434212EA8FCF7FBFB9DF84C
:1046C000080028B91E2210212EA8FCF7C9FB03E020
:1046D00002A80FC82EAF0FC73BA908192EAA29A1FF
:1046E000FBF7B4FF04449DF81A203BA9081926A142
:1046F000FBF7ACFF0444089B0B99CA1A3BA90819A5
:1047000021A1FBF7A3FF04449DF836203BA908191B
:104710001DA1FBF79BFF04449DF8A5203BA90819A8
:1047200019A1FBF793FF04449DF8A6203BA90819A3
:1047300015A1FBF78BFF04449DF819203BA908192C
:1047400011A1FBF783FF04443BAA10A1012001E063
:1047500009E004E007F018FE142011F06DFA6D1E58
:10476000002DBFF678AF012061B0BDE8F0830000F6
:104770006578706F72745F7265636F726420257301
:104780002C00000025732C0025642C0025730000EC
:1047900070B505460E46002400BF12E00F4830F801
:1047A000143022460EA1012007F0EEFD0B486030C8
:1047B00030F8143022460EA1012007F0E5FD601C00
:1047C000C4B2302CEADB05486838B0F828210CA1C7
:1047D000012007F0D9FD012070BD0000F4D90020B0
:1047E00070726963655B25645D3D256400000000AF
:1047F00066656574696D655B25645D3D25640000D3
:1048000053657276657270726963653D2564000058
:1048100070B504460D46002600224FF400410E48B4
:1048200002F022F9207800F07F0020702178022029
:10483000FEF7C2FF641C012606E00220FEF7B4FF6B
:104840002070641C701CC6B2AE42F6DB0122D1039C
:10485000014802F009F970BD000002403EB505466E
:104860000E4800684468200E8DF80800200C8DF872
:104870000900200A8DF80A00E0B28DF80B009DF8BF
:1048800008009DF80910CDE900109DF80A309DF848
:104890000B2003A12846FBF7D9FE3EBD30000020C7
:1048A00025642E25642E25642E25640070B52DED1B
:1048B000088B05460620FEF707FF04469FED260AF3
:1048C000B0EE408A1CB92548008884B201E0234834
:1048D000046020461EF05AFE41EC1B0B9FED200B9E
:1048E00053EC102B1EF0A2FE41EC1A0B9FED1E0B99
:1048F00053EC102B1EF072FC41EC190B1EF080FBE8
:1049000008EE100A9FED140A38EE000AB0EE408A55
:10491000B1EE000A28EE000AB0EE408A18EE100A46
:104920001FF07AF941EC1A0B9FED110B53EC102B91
:104930001EF098FB41EC190B1EF062FB08EE100A0A
:104940009FED0D0A28EE000ABDEEC00A10EE100A17
:10495000BDEC088B70BD0000000000009803002033
:104960006666666666660A40000000000000B040A9
:10497000666666666666E63F0000C84270B5054634
:104980002846FFF793FF0446B4F57A7F01DD022045
:1049900070BDB4F57A7F04DCB4F5487F01DD0020FA
:1049A000F6E7B4F5487F04DCB4F5967F01DD01201D
:1049B000EEE70220ECE700000146024800EB811020
:1049C0004078704728D700200148006870470000F1
:1049D000C00100200EB50146002000900190029019
:1049E0000948006802900848001D006801900648C8
:1049F00008300068009000980860019848600298AC
:104A0000886000200EBD0000E8F7FF1F0246024844
:104A100000EBC20103C9704780DF002070B5044677
:104A20000D4600F011F8064626B92946204600F04A
:104A300011F870BD034800EB05130FCB84E80F009D
:104A400000BFF6E724D90020014890F840017047E4
:104A50008CD9002030B5034A02EB01153CCD80E82B
:104A60003C0030BD20E100202DE9F04391B08146AB
:104A70000E46302105A8FCF71DFA0024002101A8EC
:104A8000FFF7CCFF0020FFF797FF054605A8FFF7CB
:104A9000E5FE0020FFF70AFF044605AA34A1012025
:104AA00007F072FC642094FBF0F100FB114794FBCB
:104AB000F0F83B46424634A1012007F065FCBDF901
:104AC00008400A2094FBF0F100FB114794FBF0F83A
:104AD0003B46424633A1012007F056FCBDF90E408B
:104AE000642094FBF0F100FB114794FBF0F83B4687
:104AF000424632A1012007F047FC019C642094FB50
:104B0000F0F100FB114794FBF0F83B46424632A11E
:104B1000012007F039FC0020FFF778FF0023584000
:104B20005940084303D033A1012007F02DFC012D8B
:104B300004D137A1012007F027FC11E0022D04D198
:104B40003AA1012007F020FC0AE0032D04D13EA188
:104B5000012007F019FC03E041A1012007F014FC3B
:104B6000304603F0C1FE002011B0BDE8F083000024
:104B70006765745F72756E5F696E666F204950205D
:104B80003D202573000000006765745F72756E5FDD
:104B9000696E666F204350203D2025642E25322EFD
:104BA000326400006765745F72756E5F696E666F70
:104BB0002056203D2025642E256400006765745F23
:104BC00072756E5F696E666F2041203D2025642EF0
:104BD00025322E32640000006765745F72756E5F67
:104BE000696E666F2045203D2025642E25322E32C9
:104BF000640000006765745F72756E5F696E666F52
:104C000020535953203D207761726E696E67000012
:104C10006765745F72756E5F696E666F2053595376
:104C2000203D206368617267696E67006765745F25
:104C300072756E5F696E666F20535953203D206612
:104C4000696E6973686564006765745F72756E5F2D
:104C5000696E666F20535953203D20626F6F6B0061
:104C60006765745F72756E5F696E666F2053595326
:104C7000203D2069646C65001CB5074840790649F1
:104C80000979CDE900100448C378827803A1012096
:104C900007F07AFB00201CBD7CDB0020495020255A
:104CA000642E25642E25642E2564000070470000C4
:104CB00038B502460020009000BF92F83C00012861
:104CC00001D1022038BD012082F83C0000BF0868F5
:104CD000092816D91068C0680C780A3C04EB440512
:104CE0000724AC40A0431468E0600C780A3C04EB55
:104CF00044048868A0401468E46820431468E060B5
:104D000013E0106800690C7804EB44050724AC40FC
:104D1000A043146820610C7804EB44048868A04028
:104D2000146824692043146820614868072817D252
:104D30001068406B0C79641E04EB84051F24AC40A2
:104D4000A04314686063088880B20C79641E04EB89
:104D50008404A0401468646B20431468606331E0ED
:104D600048680D2817D21068006B0C79E41F04EB1B
:104D700084051F24AC40A04314682063088880B2D7
:104D80000C79E41F04EB8404A0401468246B2043D6
:104D90001468206316E01068C06A0C790D3C04EBBF
:104DA00084051F24AC40A0431468E062088880B2E8
:104DB0000C790D3C04EB8404A0401468E46A2043A1
:104DC0001468E062194B1A4C1068A04206D10868BA
:104DD000122803D1586840F480005860144C1068C1
:104DE000A0421CD10868102802D00868112816D1EA
:104DF000586840F400005860086810280FD10D482A
:104E000000680D4CB0FBF4F000EB80004000009017
:104E100002E00098401E009000980028F9D100BFE1
:104E2000002082F83C0000BF00BF4BE70023014098
:104E3000002001406400002040420F0010B50446ED
:104E40000248844201D1FEF7ADFB10BDF8030020FB
:104E5000704770472DE9F041044600250026206880
:104E600007682068D0F8048007F0020508F02006E3
:104E700095B38EB3206C00F0100018B9206C40F48C
:104E8000007020642068806800F04050E8B9207EFF
:104E9000D8B92068C06A00F4700020B1206880682A
:104EA00000F4806088B92068406820F02000216804
:104EB0004860206C20F480702064206C00F48050E6
:104EC00018B9206C40F0010020642046FFF7B6FFBF
:104ED0006FF012002168086007F0040508F08006F2
:104EE000E5B3DEB3206C00F0100018B9206C40F47C
:104EF000005020642068806800F4401038BB2068AF
:104F0000806B00F4401020B12068806800F480605D
:104F1000E8B92068406800F48060C0B92068806803
:104F200000F0405098B9207E88B92068406820F091
:104F3000800021684860206C20F480502064206C40
:104F400000F4807018B9206C40F001002064204605
:104F5000FFF7ACFE6FF00C002168086007F0010558
:104F600008F0400685B17EB12068006800F00100BD
:104F700050B1206C40F480302064204600F050F89E
:104F80006FF001002168086007F0200508F08066D6
:104F90007DB176B1606C40F0020060646FF020007B
:104FA000216808602046FFF754FF6FF02000216859
:104FB0000860BDE8F081000070B5044600250CB91A
:104FC000012070BD1549A06A884200D000BF206C46
:104FD00030B9204600F026F80020606484F83C00D8
:104FE000206C00F0100088B9206C20F4885040F04C
:104FF000020020642046FEF725FA00206064206C41
:1050000020F0020040F00100206400E0012500BF14
:10501000002084F83C0000BF2846D2E70100000FC2
:105020007047000010B586B00446142101A8FBF7B4
:1050300041FF4549206888427ED100BF0020009092
:105040004248006840F480704049086008460068A3
:1050500000F48070009000BF00BF00BF00200090EF
:105060003A481438006840F00400384914390860A0
:105070000846006800F00400009000BF00BF00BFB9
:10508000002000900846006840F0010008600846D3
:10509000006800F00100009000BF00BF00BF0020CA
:1050A00000900846006840F002000860084600686A
:1050B00000F00200009000BF00BF0120019003201B
:1050C00002900020039001A9214801F0C1FB792042
:1050D0000190032002900020039001A91D4801F0D7
:1050E000B7FB0320019002900020039001A91A4809
:1050F00001F0AEFB19481A49086000204860002101
:1051000017488160C1604FF48061016149004161CD
:10511000890081610021C1610162416200F0A6FC49
:1051200008B1FFF702FA00BF0D48A063846300BF17
:1051300000220521122000E004E001F067FD1220AA
:1051400001F054FD06B010BD00200140443802407B
:1051500000080240000002400004024010640240C7
:1051600040040020F8B504460D4616460020009085
:1051700000BF94F83C00012801D10220F8BD0120B5
:1051800084F83C0000BF2068806800F00100A0B9EE
:105190002068806840F001002168886055480068F8
:1051A0005549B0FBF1F000EB4000009002E00098A0
:1051B000401E009000980028F9D12068806800F413
:1051C0008070B0F5807F05D12068806820F4807001
:1051D000216888602068806800F0010000287ED087
:1051E000206C40F20161884340F4807020642068A4
:1051F000406800F4806028B1206C20F4005040F436
:1052000080502064206C00F48050B0F5805F04D1A1
:10521000606C20F00600606401E00020606400BF64
:10522000002084F83C0000BF344F3548A16BC863B0
:105230003448A16B08643448A16BC8646FF0220045
:10524000216808602068406840F0806021684860FC
:105250002068806840F4807021688860226802F1CC
:105260004C0133462A46A06B00F076FC786800F0CB
:105270001F0018BB25492068884213D024492068A4
:10528000884204D1381D006800F01F0050B1214948
:10529000206888422BD11948001D006800F01F00CB
:1052A000102824D22068806800F04050F8B92068A7
:1052B000806840F080402168886018E013492068C9
:1052C000884214D12068806800F0405078B9206886
:1052D000806840F080402168886008E0FFE7206C2B
:1052E00040F010002064606C40F001006064002019
:1052F00044E700006400002040420F00002301400A
:105300008D330008253400080B34000800200140CC
:10531000002101400022014070472DE9F05F044662
:105320000025206846692068D0F8049020688768C6
:105330002068D0F80CA02068D0F810B02068D0F811
:10534000188006F00100002855D007F00100C0B118
:1053500001202168886007F0020018B1204600F0A3
:1053600027FA0EE007F0040010B145F4006508E0EC
:1053700007F0080010B145F4805502E0204600F027
:1053800016FA07F48070C8B14FF480702168886005
:1053900007F4007018B1204600F00CFA0EE007F494
:1053A000806010B145F4005508E007F4006010B1CA
:1053B00045F4804502E0204600F0FBF907F4803018
:1053C000C8B14FF480302168886007F4003018B10C
:1053D000204600F0F1F90EE007F4802010B145F40A
:1053E000004508E007F4002010B145F4803502E0E4
:1053F000204600F0E0F906F0080038B10AF010008D
:1054000020B145F4007510202168C86006F0040042
:1054100040B10AF0080028B108202168C860204681
:1054200000F0C0F906F0020038B12068C06800F052
:10543000030010B1204600F0B6F906F0400038B184
:105440000BF0100020B145F4806510202168086140
:1054500006F0200040B10BF0080028B108202168B8
:105460000861204600F0A0F906F0100038B120686D
:10547000006900F0030010B1204600F096F906F430
:10548000003040B109F0100028B1102021684860B8
:10549000204600F08BF906F4803040B109F0080096
:1054A00028B1082021684860204600F086F906F4FB
:1054B000004088B309F0040078B306F4807020B18E
:1054C00008F0010008B145F0010506F4007020B1B4
:1054D00008F0020008B145F0020506F4806020B132
:1054E00008F0040008B145F0040506F40060A0B11E
:1054F00008F0700088B108F07000402817D006DC72
:1055000010280BD020280CD0302819D10CE05028BE
:1055100010D0602814D110E01DE019E045F0080516
:105520000FE045F010050CE045F0200509E045F0DE
:10553000400506E045F0800503E045F4807500E095
:1055400000BF00BF2068806920F07000216888617A
:105550000420216848602DB1606A284360622046BB
:10556000FFF7DAFEBDE8F09F70B504460CB90120E4
:1055700070BD94F8200010B9204600F0AFF8206804
:10558000006840F001002168086001F073FA0546E8
:105590000DE001F06FFA401B0A2808D9606A40F458
:1055A00000306062052084F820000120E0E72068D8
:1055B000406800F001000028EBD02068006820F06F
:1055C00002002168086001F055FA05460DE001F07F
:1055D00051FA401B0A2808D9606A40F40030606222
:1055E000052084F820000120C2E72068406800F010
:1055F00002000028EBD1207E012806D12068006837
:1056000040F080002168086005E02068006820F014
:10561000800021680860607E012806D1206800684B
:1056200040F040002168086005E02068006820F034
:10563000400021680860A07E012806D1206800682B
:1056400040F020002168086005E02068006820F034
:10565000200021680860E07E012806D120680068EB
:1056600020F010002168086005E02068006840F024
:10567000100021680860207F012806D1206800689A
:1056800040F008002168086005E02068006820F00C
:10569000080021680860607F012806D12068006842
:1056A00040F004002168086005E02068006820F0F0
:1056B000040021680860D4E9020108432169084315
:1056C000616908436168491E08432168C861002078
:1056D0006062012084F82000002049E710B586B000
:1056E0000446142101A8FBF7E5FB2B4920688842FA
:1056F00050D100BF002000902848006840F00070A2
:10570000264908600846006800F00070009000BF5D
:1057100000BF00BF0020009020481038006840F013
:1057200001001E49103908600846006800F00100B9
:10573000009000BF00BF4FF4C050019002200290C3
:1057400000200390032004900920059001A914482B
:1057500001F07EF800220521132001F057FA1320F2
:1057600001F044FA00220521142001F04FFA142020
:1057700001F03CFA00220521152001F047FA15201E
:1057800001F034FA00220521162001F03FFA16201C
:1057900001F02CFA06B010BD006400404038024011
:1057A000000002407047704770477047704770476D
:1057B00070477047704770477047704770B5044630
:1057C0000CB9012070BD94F83500022800D1F9E72A
:1057D0002068006820F0010021680860002021682E
:1057E000086021684860216888602168C860216875
:1057F00008612120216848612046FEF703FA05462A
:105800000020E06320646064A064E064206594F894
:105810005C103F208840A8600020606584F8350057
:1058200000BF84F8340000BF00BFCBE7F8B50446E2
:10583000002000908C4800684FF41651B0FBF1F73F
:10584000A56D2E6894F85C1008208840304098B10F
:105850002068006800F0040070B12068006820F043
:1058600004002168086094F85C1008208840A86053
:10587000606D40F00100606594F85C100120884084
:10588000304068B12068406900F0800040B194F871
:105890005C1001208840A860606D40F002006065E7
:1058A00094F85C1004208840304068B1206800689B
:1058B00000F0020040B194F85C1004208840A86019
:1058C000606D40F00400606594F85C101020884022
:1058D000304078B32068006800F0080050B394F8B6
:1058E0005C1010208840A8602068006800F48020C8
:1058F00080B12068006800F4002028B9206CC8B18D
:105900002046216C884715E0A06C98B12046A16C18
:1059100088470FE02068006800F4807028B920688C
:10592000006820F0080021680860206C10B1204653
:10593000216C884794F85C10202088403040002873
:1059400065D02068006800F0100000285FD094F84F
:105950005C1020208840A86094F83500052828D1E4
:105960002068006820F016002168086020684069FF
:1059700020F0800021684861206C08B9A06C28B133
:105980002068006820F008002168086094F85C1026
:105990003F208840A860012084F8350000BF002027
:1059A00084F8340000BF206D10B12046216D884777
:1059B000F8BD2068006800F4802080B1206800688D
:1059C00000F4002028B9606C10B12046616C884753
:1059D0001DE0E06BD8B12046E16B884717E02068F6
:1059E000006800F4807068B92068006820F010003A
:1059F00021680860012084F8350000BF002084F889
:105A0000340000BFE06B10B12046E16B8847606D49
:105A100038B3606D00F00100F0B1052084F8350066
:105A20002068006820F001002168086000BF00982D
:105A3000401C0090B84200D905E02068006800F0E2
:105A400001000028F3D100BF012084F8350000BF19
:105A5000002084F8340000BFE06C10B12046E16CF7
:105A6000884700BFA4E70000640000202DE9F04152
:105A70000446002500F0FEFF074614B90120BDE8EA
:105A8000F081606A00B100BF022084F8350000BFD9
:105A9000002084F8340000BF2068006820F0010076
:105AA000216808600AE000F0E5FFC01B052805D961
:105AB00020206065032084F83500E0E72068006856
:105AC00000F001000028EED120680568214805405B
:105AD000D4E901010843E168084321690843616989
