:020000040800F2
:10000000D808012025040008D95F0108F3EF000893
:10001000C55901085952000879A5010800000000DF
:100020000000000000000000000000003103000894
:10003000B1760008000000008D030008E595010876
:100040009DA601083F0400083F0400083F04000883
:100050003F0400083F0400083F0400083F04000874
:100060003F0400083F040008A58700083F0400087B
:10007000B5740008C5740008D5740008E57400085C
:10008000F57400083F040008553A0008B152000812
:100090008152000891520008A15200083F04000854
:1000A0003F0400083F0400083F0400081D9A0108AF
:1000B0002D9A01083F0400083D9A01083F040008FA
:1000C0003F0400083F0400083F0400083F04000804
:1000D0003F040008759F0108899F01089D9F010842
:1000E0003F0400083F0400083F0400083F040008E4
:1000F0003F0400083F0400083F0400083F040008D4
:100100003F0400083F0400083F0400083F040008C3
:10011000219D0108359D01083F0400083F040008A7
:1001200005750008157500083F0400083F04000825
:100130003F0400082D820008958700083F0400084E
:100140003F0400083F0400083F0400083F04000883
:100150003F040008257500083F0400083F0400081C
:100160003F0400083F0400083F0400083F04000863
:100170003F0400083F0400083F040008000000009E
:100180003F0400083F04000800F002F800F0C1F846
:100190000AA090E8000C82448344AAF10107DA45E2
:1001A00001D100F0B6F8AFF2090EBAE80F0013F073
:1001B000010F18BFFB1A43F00103184784A5030081
:1001C000A4A503000A444FF0000C10F8013B13F003
:1001D000070408BF10F8014B1D1108BF10F8015BA0
:1001E000641E05D010F8016B641E01F8016BF9D193
:1001F00013F0080F1EBF10F8014BAD1C0C1B09D1EA
:100200006D1E58BF01F801CBFAD505E014F8016B5B
:1002100001F8016B6D1EF9D59142D6D370470000ED
:100220000023002400250026103A28BF78C1FBD8FF
:10023000520728BF30C148BF0B6070476E2901F0DC
:10024000FD82702900F04183662939F048806529D4
:1002500039F04580672939F04280612939F04180C1
:1002600003681B0A28BF41F08001692900F0B282AF
:10027000642900F0AF82752900F0AC826F2901F08B
:10028000FC83782900F00D83E92901F09783E429A4
:1002900001F09483F52901F09183EF2901F0F983AE
:1002A000F82900F00C830368DB0928BF41F08001C6
:1002B000632901F00683732901F00B83E32902F01F
:1002C0009F82F32902F0A482002070471FB538F006
:1002D000FCFF9DE8030001F0FBF900F0D6FD01F002
:1002E000DBF904000020002138F024F9401C606094
:1002F0000020002138F034F9E0600020002138F0BF
:1003000045F9206101F040FD1FBD10B501F0A5FDCC
:1003100010BD02F01FFE1146FFF7D8FF26F022FDA8
:1003200002F006FF03B4FFF7F0FF03BC02F050FF3A
:100330002C4B19680868B0E8F04F80F30988BFF3C8
:100340006F8F4FF0000080F31188704700000000AD
:1003500008480068006880F308884FF0000080F3C8
:10036000148862B661B6BFF34F8FBFF36F8F00DFA3
:1003700000BF00BF08ED00E0DFF80C00016841F4A9
:1003800070010160704700BF88ED00E0EFF3098065
:10039000BFF36F8F134B1A681EF0100F08BF20EDCC
:1003A000108A20E9F04F106009B44FF0500080F33C
:1003B0001188BFF34F8FBFF36F8F36F0FDFE4FF004
:1003C000000080F3118809BC19680868B0E8F04F94
:1003D0001EF0100F08BFB0EC108A80F30988BFF33D
:1003E0006F8F704768000020EFF3058070470000B2
:1003F0000B49D1F800C04A685CF8043B1068184407
:1004000042F8040B8C4528BFA1F1DC0C8A4228BFBE
:10041000A1F1DC02C1F800C04A6020F00040704742
:10042000FC0101200948804709480047FEE7FEE734
:10043000FEE7FEE7FEE7FEE7FEE7FEE7FEE7FEE794
:1004400004480549054A064B70470000099A01080F
:1004500089010008D8020120D8080120D804012011
:10046000D804012010B501F017F9001D10BD00BF20
:10047000C5800300004870473002012070B5A0FB22
:100480000140B4F1805170F1000024BF002070BD24
:10049000204600F007F805001CBF214600F025FFAC
:1004A000284670BD70B5064601F0F2F8056806F101
:1004B0000B0020F00704B4429CBF002070BD2B4607
:1004C0006A68BAB11068A04210D304F108018842EA
:1004D0003CBF5068586007D35168101941601168DB
:1004E000091B016058601460101D70BD13465268EE
:1004F000002AE7D12146284601F0D6F80028DED1AF
:1005000070BD70B50446051F01F0C2F80068002CEC
:1005100014BF446870BD002C18BFAC423CBF2046DD
:100520006468F8D301680A18AA4218BF456003D16D
:100530002A6805461144016028684119A1421CBF80
:100540006C6070BD6168696021680844286070BD96
:1005500053EA020C00F069802DE9F04B4FF00006E1
:10056000002B1FBFB3FA83F503FA05F424FA05F64E
:100570005E4012BF1643B2FA82F502FA05F4C5F1E5
:1005800020051EBF22FA05FC44EA0C04203556EA79
:10059000044C4FEA144418BF641C4FF000084FF09D
:1005A0000009904271EB030C39D3002919BFB1FA4D
:1005B00081F701FA07F6B0FA80F700FA07F6C7F1FB
:1005C00020071EBF20FA07FC46EA0C062037B6FBC0
:1005D000F4FCA7EB0507103F07F01F0BCBF120063B
:1005E0000CFA0BFB2CFA06F644BFB3460026202F6C
:1005F000A4BF5E464FF0000B5BEA060C08BF4FF04D
:10060000010B19EB0B09ABFB027C48EB0608C01B86
:1006100006FB02CC0BFB03CC71EB0C01C1E70B46D4
:10062000024641464846BDE8F08B13B54FF0000046
:100630004FF00001AFF30080BDE81C407047B2F1FD
:1006400020030AD5C2F1200301FA02F120FA03F3D4
:1006500000FA02F041EA0301704700FA03F14FF09B
:100660000000704710B50446FFF7FCFE0068005D0F
:10067000C00602D504F1200010BD204610BD0000C8
:100680001CB50C46064B7B4469460090204601F0A1
:10069000EEF804460020694601F0FCF820461CBD37
:1006A0000B1200000FB4044910B503AA029801F020
:1006B00015F910BC5DF814FB780001200FB4014659
:1006C00010B504AA039801F009F910BC5DF814FBF9
:1006D0000FB41CB5084B06AA7B44694600900598E8
:1006E00001F0C5F804460020694601F0D3F8204621
:1006F0001CBC5DF814FB0000B91100000FB47CB500
:100700000C0009AA009001D02044401E084B7B44F5
:1007100069460190089801F0AAF805461CB100202E
:10072000694601F0B7F828467CBC5DF814FB000070
:100730008D11000070B5044685690068C10601D5B9
:10074000302600E02026C00707D070BDD4E9012183
:1007500030469047206A401C20626D1EF6D570BD61
:1007600070B5044685690078C00707D170BDD4E92B
:10077000012120209047206A401C20626D1EF6D582
:1007800070BD70B50C460546012A05D02878800654
:1007900000D5EA69002302E0012305E05B1C9342D7
:1007A00002D2E05C0028F9D1A869E618C01AA86155
:1007B000286A184428622846FFF7BCFF04E0D5E900
:1007C000012114F8010B9047B442F8D32846FFF7F3
:1007D000C7FF70BD2DE9F041064600241068752959
:1007E000314616A510D000F0BEFF002802DA4042C4
:1007F00013A507E031688A0701D512A502E0490771
:1008000004D511A5012401E000F0B6FF00210A2261
:1008100006F1240709E0B0FBF2FCB0FBF2F302FBA7
:100820001C00303078541846491C0028F3D1234668
:100830002A463046BDE8F04100F0A7BF00000000A6
:100840002D0000002B00000020000000F0B40D4639
:100850000188090502D5214C7C4402E01F4C7C44F0
:100860000E34002100F1240608E002F00F071209FF
:10087000E75D42EA03721B097754491C52EA0307F9
:10088000F3D102780023120704D5702D06D009B1E8
:10089000022311342246F0BC00F077BF012310344C
:1008A000F8E770B504460D462146106800F064FF75
:1008B000024629462046BDE870400023C6E7D21D07
:1008C00022F00703D3E90023C0E70368126843F06E
:1008D000200303600823C3610023B7E7509503009A
:1008E0002DE9F05F894604464FF0000ADFF874B145
:1008F000FB44C0F820A02046E1688847002874D057
:10090000252806D0D4E901219047206A401C2062A6
:10091000F1E700265F462046E16888472028054623
:1009200007DB312D05D2781910F8200C08B10643E9
:10093000F1E7B00701D526F00406C4F81CA0002793
:10094000C4F818A02A2D09D028461BF0D9F838B3CE
:1009500004EB8708303DC8F8185019E059F8041B1B
:10096000204604EB87029161E1688847012F054624
:1009700018D1E069002820DA26F020061DE0D8F81A
:10098000180000EB800005EB40003038C8F8180074
:100990002046E168884705461BF0B2F80028EED1F2
:1009A000012F0AD02E2D08D12046E16888477F1CF0
:1009B0000546022F46F02006C4DBA069002803DAB2
:1009C000404246F00106A061F00701D026F0100673
:1009D0006C2D0BD0682D09D04C2D39D06A2D35D017
:1009E000742D35D07A2D33D016E038E0E1682F46EB
:1009F00020468847B842054609D16C2F26D04FF4CF
:100A00008060E168064320468847054604E06C2F75
:100A10001AD04FF4807006430DB3A5F14100192898
:100A200002D8203546F400664A462946204626600C
:100A30004E46FFF703FC80B101280BD0F61D26F0CF
:100A4000070000F1080956E74020E4E78020D8E7D6
:100A50000020D6E706F104094DE7284652E7206A50
:100A6000BDE8F09FE09403000FB400B58DB010A96D
:100A7000099000910B904FF0FF300A9000200C90ED
:100A8000064878440690064878446A4607900F99CD
:100A900009A801F01DF80DB05DF814FB6B10000003
:100AA000831000002DE9FF5F1D464FF0FF3B91468C
:100AB0004FF000085F46D5E90146A96901987F1CFF
:100AC0008847296A824688470028F6D1BAF1FF3F55
:100AD0000CD0002E24F4C06419DD600614D5BAF1E0
:100AE0002B0F09D0BAF12D0F0ED103E0584604B0F8
:100AF000BDE8F09F44F48064A96901987F1C884791
:100B0000761E8246002E02DDBAF1300F03D0B9F115
:100B1000000F26D032E0A969761E01987F1C44F4AC
:100B200000748847002E824605DDBAF1780F06D0A2
:100B3000BAF1580F03D0B9F1000F10D01EE0B9F18F
:100B4000000F02D0B9F1100F18D1A969761E0198D3
:100B50007F1C24F4007488478246102002E008209D
:100B600000E00A20814609E0A96908FB0908761E11
:100B700001987F1C44F4007488478246002E05DDEE
:100B80004946504600F090FF0028EDDAE9690198E7
:100B90008847A00502D46FF00100A8E7E00725D13F
:100BA000600613D5600502D5C8F1000000E040469C
:100BB00029680A1D2A600968220501D5087015E018
:100BC000220701D5088011E008600FE02868011DA8
:100BD00029600068210502D580F8008006E0210721
:100BE00002D5A0F8008001E0C0F8008038467EE71A
:100BF0002DE9FF5F4FF0000899461446464691697B
:100C0000D2E901A7DDF838B001988847054659EACE
:100C10000B0005D009E0A1690198761C88470546BC
:100C2000216A284688470028F5D1681C03D05FEA6E
:100C3000CA7005D015E04FF0FF3004B0BDE8F09F5A
:100C40002068011D2160D0F800800AE05FEACA70C8
:100C500001D108F8015BA169761C01987F1E8847C5
:100C60000546002F1ADD681C18D0B9F1000F0DD011
:100C7000E81705EBD060421120F01F0059F8221050
:100C80002A1A012090400142E0D107E0BBF1000F99
:100C9000DCD12846216A88470028D7D0E16901982D
:100CA0008847BBF1000F07D1002E05DD5FEACA704F
:100CB00002D1002188F80010A068B84203DDBBF122
:100CC000000F03D017B16FF00100B6E73046B4E76C
:100CD00070B50646FFF7CEFB0468054630460A228B
:100CE000002100F025FF2C6070BD000010B530B170
:100CF000017821B102460A4807A100F02AFDFFF75A
:100D0000B9FB006800F0CAF8BDE81040024604488C
:100D100004A100F01EBD000025733A200000000071
:100D2000CC00012025730A002DE9F0410C4607464E
:100D30001646104600F06EF82078611C61280AD033
:100D4000722802D077283CD102E00125002405E07A
:100D50000225042402E0082448F2020511F8010BE0
:100D60002B2806D0622809D011F8010C74280AD06B
:100D70000BE045F0030544F00204EFE745F00405FD
:100D800044F00104EAE744F010043846214600F03C
:100D900048FC411C15D00021316171604FF4007195
:100DA000F560F1617061200704D530460222002110
:100DB00000F0F6FE306D40F0010030653046BDE8D1
:100DC000F0810020FBE72DE9F0410D460646104C6E
:100DD000206DC10704D0410804D020F00104F7E7DA
:100DE00022460EE05420FFF75DFB07000ED0206D79
:100DF00047F00101084354212065384600F097FA76
:100E00003A4629463046BDE8F0418DE70020D6E756
:100E1000240001202DE9F04704464FF000094FF06F
:100E2000FF37C568D4E90486A80707D0204600F03C
:100E300067FF304600F0FFFB002802DA3846BDE8C5
:100E4000F087280502D54046FFF75BFB4C21204682
:100E500000F06DFA206D20F0010020654846EEE7B5
:100E60000B4910B5A1F17C020A4CC2E937123721B7
:100E700006E000EB104342F82130074B00FB034033
:100E80000B1EA1F10101F4DC10BD0120E8E7000018
:100E90009C010120E119D666CD0D0100072811D271
:100EA000DFE800F00406080E100C0A0006A07047E8
:100EB0000BA0704714A070471EA0704723A0704776
:100EC0002CA0704733A070474E6F206572726F720E
:100ED00020286572726E6F203D20302900000000CE
:100EE00045444F4D202D2066756E6374696F6E20EA
:100EF000617267756D656E74206F7574206F662002
:100F000072616E67650000004552414E4745202DD5
:100F10002066756E6374696F6E20726573756C748C
:100F2000206E6F7420726570726573656E74616295
:100F30006C650000454E4F4D454D202D206F75745A
:100F4000206F66206D656D6F7279000045494E56C1
:100F5000414C202D20696E76616C69642061726756
:100F6000756D656E7420746F2066756E6374696F3D
:100F70006E000000455349474E554D202D20696CA9
:100F80006C6567616C207369676E616C206E756D4E
:100F900062657200556E6B6E6F776E206572726F50
:100FA00072000000401ECAB210F8011F8A4202D02F
:100FB0000029F9D10020704730B505460B462A4676
:100FC00013F8014B12F8010B08B1A042F8D01CB184
:100FD000002802D06D1CF1E7284630BD40EA01032D
:100FE00010B59B070FD1042A0DD310C808C9121FD2
:100FF0009C42F8D020BA19BA884201D9012010BD0C
:101000004FF0FF3010BD1AB1D30703D0521C07E0D8
:10101000002010BD10F8013B11F8014B1B1B07D13C
:1010200010F8013B11F8014B1B1B01D1921EF1D1AD
:10103000184610BD40EA0103024630B59B0710D1A7
:101040004FF0013400E008C208C91D1B9D4315EA9A
:10105000C41FF8D013F0FF0102F8011B0DD01B0ACA
:10106000F8E711F8013B002B02F8013B05D011F81D
:10107000013B002B02F8013BF3D130BD10B5431CFE
:1010800002E010F8011B71B18107FAD14FF0013273
:1010900002C88C1A8C4314EAC211F9D0C01A0A068D
:1010A00003D0C01E10BDC01A10BD0A0401D0801E9E
:1010B00010BD0902FCD0401E10BD40EA010370B50E
:1010C0009B072ED14FF00136042A2AD308C810C935
:1010D0009D1B9D43121F15EAC61517D0D8B2E1B269
:1010E000401A50EA056110D198B2A1B2401A50EAF4
:1010F00005410AD123F07F4024F07F41401A50EA95
:10110000052102D1180EA0EB146070BDA342DBD004
:1011100018BA21BA884201D9012070BD4FF0FF30C2
:1011200070BD0AB9002070BD10F8013B11F8014BE9
:1011300063B1A3420AD1521E08D010F8013B11F846
:10114000014B1BB1A34201D1521EEDD1181B70BD42
:10115000421E12F8013F002BFBD111F8013B002B7E
:1011600002F8013BF9D17047032A40F2308010F0B9
:10117000030C00F0158011F8013BBCF1020F624432
:1011800098BF11F801CB00F8013B38BF11F8013BC3
:10119000A2F1040298BF00F801CB38BF00F8013B70
:1011A00011F0030300F06780083AC0F0088051F89E
:1011B000043B083A51F804CBA0E80810F5E7121DEB
:1011C0005CBF51F8043B40F8043BAFF30080D2070A
:1011D00024BF11F8013B11F801CB48BF11F8012BD6
:1011E00024BF00F8013B00F801CB48BF00F8012BF9
:1011F0007047431A28BF9A427FF6B6AF032A1044BD
:10120000114440F2268010F0030F1EBF11F8013D7B
:10121000521E00F8013D10F0030F7FF4F6AF11F0FD
:10122000030300F06086083AC0F00B8051F8043DDB
:10123000083A51F804CD40F8043D40F804CDFFF7DA
:10124000F3BF121D5CBF51F8043D40F8043DAFF3FD
:101250000080D20724BF11F8013D11F801CD48BF2D
:1012600011F8012C24BF00F8013D00F801CD48BF62
:1012700000F8012C704710B5203AC0F00B80B1E89F
:101280001850203AA0E81850B1E81850A0E81850BB
:10129000BFF4F5AF5FEA027C24BFB1E81850A0E8C4
:1012A000185044BF18C918C0BDE810405FEA827CDE
:1012B00024BF51F8043B40F8043B08BF7047D207F5
:1012C00028BF31F8023B48BF11F8012B28BF20F896
:1012D000023B48BF00F8012B704702F0FF0343EACE
:1012E000032242EA024200F002B84FF00002042951
:1012F000C0F0128010F0030C00F01B80CCF1040C45
:10130000BCF1020F18BF00F8012BA8BF20F8022B78
:10131000A1EB0C0100F00DB85FEAC17C24BF00F81E
:10132000012B00F8012B48BF00F8012B70474FF04C
:10133000000200B5134694469646203922BFA0E825
:101340000C50A0E80C50B1F12001BFF4F7AF090731
:1013500028BFA0E80C5048BF0CC05DF804EB890022
:1013600028BF40F8042B08BF704748BF20F8022B65
:1013700011F0804F18BF00F8012B704710B50446DC
:1013800010F0030F08BF11F0030F40F015804FF06D
:10139000013E121FC0F20E8051F8043BA3EB0E0C6D
:1013A0002CEA030C1CEACE1C08BF40F8043BF0D02A
:1013B000A1F1040102F10402521E08DB11F8013B05
:1013C000002B00F8013BF7D11146FFF78EFF2046B6
:1013D00010BD00004FF0013C50F8042B51F8043BC5
:1013E0009A4221D1A2EB0C03934313EACC1317D1F9
:1013F00050F8042B51F8043B9A4215D1A2EB0C0390
:10140000934313EACC130BD150F8042B51F8043B4F
:101410009A4209D1A2EB0C03934313EACC13DBD01D
:101420004FF00000704700BFD01A01BAB1FA81F145
:1014300001F0180122FA01F0CB40C1F12001DBB22A
:10144000C0B2C01A2CFA01F3D11A914311EAC311A8
:10145000E6D1704710B500F005F8BDE8104000F087
:101460006DBD0000014900F06FBD000004020120C5
:1014700010B503681C1404EB21449BB289B21944D3
:1014800094FBF2F302FB134394FBF2F401EB0343EE
:1014900093FBF2F102FB113193FBF2F301E05B1ECF
:1014A00011440029FBDB016003EB044010BDF0B5E3
:1014B00004464FF0FF3585B00068049060680290E4
:1014C000A0680390E068019020690090666906F1C9
:1014D0008040B0F1004F7CD83C22002104A8FFF7E7
:1014E000C7FF3C22014602A8FFF7C2FF18220146AF
:1014F00003A8FFF7BDFF411E40F2B55201A8FFF758
:10150000B7FF0C22074668460021FFF7B1FF414BA9
:1015100000EB8700304400267B4411E0511A019112
:101520000099491C0229009102D00C2908D105E03C
:10153000810705D00199491C019101E0401C0096EA
:101540000099019A595C9142E8DD0099012906D180
:101550001C2A04D1810702D00221CDE90016A0F196
:1015600046018B293CD2DDE90061002202E09F5C4C
:10157000521C3944B242FADB012E02DD820700D050
:10158000491E40F2B55340F26D16C21700EB92723D
:1015900092105A4300F0030303FB062283070A4418
:1015A00000D1521E039E02EB4203049F06EBC303CD
:1015B000029EC3EB031306EB8303174E33441E1442
:1015C0009BB2C6EB0616C3EB0313B60007EB83030F
:1015D00000E005E006EB134666F31F43360C02D02D
:1015E000284605B0F0BD80C4029E40C4039E40C49E
:1015F000019E761C44F80C6B009E44E902600720B3
:10160000521C92FBF0F600FB162084E823001846DB
:10161000E7E7000068890300A039CEFD70477047F6
:1016200070470EB5CDE90001FFF728FD029069462D
:101630000120ABBE0EBD08B5694600900220ABBECE
:1016400008BD1FB58DE8070069460520ABBE04B094
:1016500010BD1FB58DE80F0069460620ABBEF6E74A
:1016600008B5694600900920ABBE08BD1CB5CDE9A0
:10167000000169460A20ABBE1CBD704708B569462B
:1016800000900C20ABBE08BD00487047300201201E
:10169000004870473802012000487047500201207E
:1016A000704770477047704738B504460A460020B7
:1016B0006946AFF30080002808BF38BD0246009994
:1016C000204600F09EFC012038BD012001F007BC3F
:1016D000F8B5AFF30080054600200C46102000BF8F
:1016E0000646A819A0420DD9324669460020AFF33C
:1016F0000080070008BF01F0F2FB0098A04218BF6D
:101700000546C419FFF7C4FF05600746F01D20F029
:1017100007004619284600F00AF8B44208BFF8BD91
:10172000A21B31463868BDE8F84000F06ABC0021D1
:101730000160C0E9011070471020704710B5FEF736
:1017400099FE006810BD10B50446FEF793FE0460D4
:1017500010BD0FB4014610B504AA039800F0BEF8FE
:1017600010BC5DF814FB09684A0501D540B270470A
:10177000C905FCD500B2704709684A0501D5C0B259
:101780007047C905FCD580B270472DE9F0470D467A
:1017900099469246044600F124080168880604D55B
:1017A000E06921F01001216000E00120A84201DD84
:1017B000471B00E00027A1697A1902EB0900081A0B
:1017C000A0612078C00602D42046FEF7B3FF0026B1
:1017D00008E0D4E901211AF806009047206A401C6D
:1017E000761C20624E45F4DB2078C0060AD52046E0
:1017F000FEF7A0FF06E0D4E9012130209047206ADF
:10180000401C2062381EA7F10107F4DC07E0D4E990
:10181000012118F805009047206A401C2062281E0C
:10182000A5F10105F3DC2046FEF79AFF20780006BB
:1018300002D50220BDE8F0870120FBE711680268AD
:10184000006A530501D508700AE0D30501D5088068
:1018500006E0130603D5C217C1E9000200E00860E4
:101860000120704701694A1C02610878704700B581
:101870008FB0CDE901310021059105497944CDE9C9
:10188000031011466846FFF72BF80FB000BD0000AB
:10189000E5FFFFFF0A6802F8010B0A607047D1E913
:1018A00000239A4202D2531C0B601070704710B58F
:1018B000436913B1AFF3008001E0FEF762FF01203E
:1018C00010BD127800F124010A7000224A70012232
:1018D000EDE711684FF0FF32E9E70000074B70B504
:1018E0000D467B44FFF7C3FF0446284601F09DF9EF
:1018F00010B14FF0FF3070BD204670BD8BF201007B
:101900002DE9FF5F15468A460446DFF8AC80F844AF
:101910000027D8E900103E46CDE9001010E03AF863
:1019200016106A4602A801F0B3FA411C07D02178CC
:10193000890603D5E269391891420DD80744761C0F
:101940002078800602D5E069B84205DDAE42E6DBCC
:101950003AF816000028E2D1A069C01BA061204619
:10196000FEF7E8FED8E90010CDE90010002017E0EE
:101970003AF818106A4602A801F08AFAB0F1FF3F5F
:1019800081460BD000250DF1080B05E0D4E90121BB
:101990001BF8050090476D1C4D45F7D308F1010079
:1019A000B0428046E4DB206A384420622046FEF7DD
:1019B000D7FEBDE8FF9F00006A8503002DE9F041D6
:1019C0008046D21D22F007020025D2E90002F52947
:1019D00015A614D0011E72F1000106DA0023D0EB27
:1019E000030063EB020211A608E0D8F800108B0791
:1019F00001D50FA602E0490701D50EA60125114623
:101A0000002408F1240704E000F015FB30323A55B9
:101A1000641C50EA0102F7D12B463246214640466B
:101A2000BDE8F041FFF7B1BE000000002D0000004E
:101A30002B0000002000000030B4002100F124043D
:101A400008E002F00705D208303542EA4372DB08AD
:101A50006554491C52EA0305F3D10468002310A21F
:101A6000250707D5A40600D421B1C46901230DA21E
:101A7000641EC46130BCFFF788BE10B50446214621
:101A80001068FFF779FE02462046BDE810400023AB
:101A9000D2E7D21D22F00701D1E90023CCE70000F4
:101AA00000000000300000003A2800D2303820F05A
:101AB0002002412A01D3A2F13700884201D34FF01E
:101AC000FF30704702681144137801601846704770
:101AD000D16005497944516104497944116200217A
:101AE0001161114600F098BEEDFFFFFFE305000015
:101AF000426842B1016811F8013B23B1521EC0E9AE
:101B00000012184670470121C160881E7047426864
:101B10005AB1C368016843B983688B4205D0491E36
:101B2000521CC0E90012002070474FF0FF30704790
:101B30002DE9F04791460F4680460446002614F8EA
:101B4000015B2DB1FEF78EFC0068405DC007F6D149
:101B50002B2D02D02D2D18D0641E4A463946204622
:101B600001F014F827B13968A14201D1C7F800800B
:101B70004FF0020471050BD54042002803DDFEF74B
:101B800079FC0460A007BDE8F08746F48066E4E7CE
:101B90000028F8DAFEF76EFC04606FF00040F2E710
:101BA0002DE9F041044616460D464769007B800743
:101BB0002ED03846FFF754FD50BB3EB3012E02D065
:101BC000022E25D104E0204601F01EF905441DE057
:101BD0003846FFF753FDE168002841F01001E1604D
:101BE00005DA204600F058F80120BDE8F081C9036D
:101BF0000BD56268E16A914200D81146A26911448E
:101C00002269891A814200DD08460544002D01DA67
:101C10000220EAE7E16A6068E268814206D2910345
:101C2000E06203D522F4003141F01002A6690027DA
:101C3000AE4213DCE16A814201D90B4600E0034663
:101C400003EB060C2369ACEB030CAC4506DD8142CB
:101C500001D98C4600E084469C4505D1A7602760E9
:101C600042F02000A5620DE0AD1BE669AE1B81428B
:101C7000A66000D90846C01A281A2060581960606A
:101C800022F0200003490840E060002084F84870FA
:101C9000ABE70000BFCFD7FFC16821F4001141F0CE
:101CA0008001C16000218160016070472DE9F0472B
:101CB000814614460E464FF0FF383248D5685769C2
:101CC000054209D03846A169FFF7D0FC002811DB96
:101CD0002C48C0430540E5602B463246494638460D
:101CE000FFF7AFFCA16920F00042B21A11440028AE
:101CF000A16103D02046FFF7CFFF4046BDE8F08743
:101D000070B504460569C06A6168884200D8084613
:101D1000E16821F42011E160C90312D5A84208D07E
:101D20002246411B2846FFF7C1FF10B14FF0FF309C
:101D300070BD0020E562C4E90150E06820F4803005
:101D4000E060002070BD10B50446C06820F020009F
:101D5000E060A16AA06988420DD02046FFF7D0FF5D
:101D6000E06820F4405040F01000E060A06AA061FC
:101D70002069E062606044F24001E0688843E0600E
:101D800010BD00001000020010B542485421FFF7BA
:101D9000CEFA41485421FFF7CAFA40485421FFF7D0
:101DA000C6FA3F493B483C4A3F4B08603D490A6000
:101DB0003A491960531C0365481C106501200865E9
:101DC0003B48344A39A17844FEF7AEFF20B9384881
:101DD00078440A3801F07CF837482F4A35A1784416
:101DE000FEF7A2FF20B9344878440A3801F070F8B1
:101DF00032482A4A2FA17844FEF796FF20B92F488F
:101E000078440A3801F064F840232248DC000021BD
:101E1000224601F01AF820B125487844543801F0E0
:101E200057F81D4822464023002101F00EF820B14A
:101E300021487844543801F04BF8184822461023C2
:101E4000002101F002F8002806D01C487844BDE8C3
:101E50001040563801F03CB810BD104870B5006D08
:101E600020F001040B48FEF7D5FF0B48FEF7D2FF28
:101E70000A48FEF7CFFF09E0206D20F0010520465B
:101E8000FEF7C8FF2046FEF73CFB2C46002CF3D1A2
:101E900070BD00002400012078000120CC0001204A
:101EA00084050020880500208C05002072000000B9
:101EB000A680030077000000928003007E8003006C
:101EC000431A28BF9A427FF6D6A9104410F0030F98
:101ED00011441EBF11F8013D521E00F8013D10F0E3
:101EE000030F7FF4F6AF103AC0F00A8010B531E965
:101EF0001850103A20E91850BFF4F9AFBDE810406F
:101F0000530724BF31E9081020E9081044BF51F8F5
:101F1000043D40F8043D12F0030F08BF7047D2079C
:101F200028BF31F8023D48BF11F8012C28BF20F826
:101F3000023D48BF00F8012C70470000014900F045
:101F4000D5BF00009002012070B50C46016800204A
:101F50004A1C3ED03C22B1FBF2F302FB1313B1FB4F
:101F6000F2F12360B1FBF2F302FB1313B1FBF2F1C8
:101F700018226360B1FBF2F302FB1313B1FBF2F121
:101F800046F2E0320A440721A360B2FBF1F301FB01
:101F9000132140F2B553B2FBF3F5A161B2FBF3F1AB
:101FA00003FB15228900B2F5B77F08D39B10521EA0
:101FB000B2FBF3F52944B2FBF3F503FB15220F4BFB
:101FC000E261616189077B440CD03B2A0AD3521C31
:101FD00008E02C212046FFF7AAF90120E0600AE082
:101FE000521A401C195C9142FAD9521CC4E90320D0
:101FF0004FF0FF302062204670BD0000BA7E030023
:102000007047034640688C46002818BF88423CBF92
:1020100003464068F8D318681844884207D00CF18A
:10202000030020F00700001D411A521A0146081D46
:102030000A60FEF766BA30B5B0F10A024FEA900EB8
:1020400071F100034EEA817EB0EB0E0061EB91016D
:102050004FEA101E4EEA017E10EB0E0041EB11110B
:102060004FEA102E4EEA016E10EB0E0041EB1121EB
:102070004FEA104E4EEA014E10EB0E0041EB1141BB
:10208000401841F100014FEAD00040EA41704FEAA8
:10209000D10110EB80054FEA810444EA907444EBCF
:1020A00001046D1944EB0404521BA3414FF00003DB
:1020B00048BF0A3200D530BD401C41F1000130BD9F
:1020C00010B50446FEF7CEF90068005D00F001008F
:1020D00010BD70472DE9FF4F0C461E464FF0FF37ED
:1020E0008BB0D2E90001DDF860800A908A46C1F326
:1020F0000A5505B93D46002108464FF00000BAF1E7
:10210000000F00F4400005DA00EB80004FF44001BE
:1021100001EA50004FEA9059B9F1010F00DDB946CC
:102120000A9850EA4A000ED044F61050A5F2FF3546
:1021300045432F14B8F1000F1ED07542291E1EDD35
:10214000C9F100021CE0B8F1010F4FF0000001D00E
:10215000302103E0F24305E02154401CB042FBDB98
:1021600030460022002121540B99C1F80880C1E9B2
:1021700000200FB0BDE8F08FBD1B6D1CDEE74A46A6
:1021800000DA694206A800F061FF06AB93E8070099
:1021900003AB83E8070050460A9901F03FF88DE849
:1021A0000700A0F500501F3800900398002D0ADDAD
:1021B00042F21F014A460844002303A903906846DF
:1021C00001F0A8FA09E0A0F500504A461F380023A4
:1021D00003A90390684601F0B2FA8DE807000004F5
:1021E000000C03D04FF0FF30410800E01046B8F17A
:1021F000000F03D00022009215461EE0751E05D484
:10220000FFF719FF303262556D1EF9D5B346012232
:10221000084302D000227F1C04E02078302801D13E
:1022200000227F1E002A099784D01DE0112D07DAB5
:10223000FFF701FF303262556D1C50EA0102F5D103
:10224000084302D00098C8B10EE00021681E05E0E6
:10225000235C625C63542254401E491C8142F7DBBC
:10226000AB46A81B401E0990002004F80B000B98F9
:10227000099AC0F80880C0E9002B7AE711264FF0D0
:10228000000857E72DE9F04F88460446D21D22F09A
:10229000070191B0D1E90001CDE90A0118F094FCE1
:1022A00002460B98C00F01D02D2007E0206881075F
:1022B00001D52B2002E0202101EAC000032A099069
:1022C00001D0072A05DB03464146204600F07EFE8A
:1022D0000BE12078800601D5E06900E00620B8F126
:1022E000650F814606D0B8F1660F18D0B8F1670FB8
:1022F00070D131E00020B9F1110F009001DB112302
:1023000001E009F101030AAA01A90CA8FFF7E2FE06
:10231000DDE90C70002609F10105834647E0012044
:102320004B4600904FF000470AAA01A90CA8FFF7FE
:10233000D1FEDDE90DB00C995D46002610B909F11A
:1023400001000D18B9EB050003D4C0F1FF3609F107
:102350000105A5EB09002BE0B9F1010F01DA4FF0FF
:1023600001090020B9F1110F0090484601DD112349
:1023700000E003460AAA01A90CA8FFF7ABFEDDE9BD
:102380000C704D4600268346207800070AD4AB45E2
:1023900000DA5D4601A8012D04DD411911F8011C88
:1023A000302907D04F4502DA17F1040F04DA012073
:1023B00082460FE06D1EEEE7002F02DCED1B3E446F
:1023C00003E0781CA84200DD7D1CB81B00F1010A67
:1023D0004FF000472078000703D4AA4501DB4FF0F7
:1023E000FF3A0021B7F1004F0DF143088DF843107B
:1023F00024D002202B23002F01DA7F422D230A2133
:10240000021EA0F1010000DC5FB197FBF1FC97FB1D
:10241000F1F201FB1C7C17460CF1300C08F801CDE1
:10242000EEE7A8F1010003702188090501D54521D7
:1024300000E06521A0F1010800F8011C09980FA92E
:10244000A1EB0807FF1D00B10120411901EBEA7063
:10245000A1693844081A401EA0612078C00602D441
:102460002046FEF767F9099828B1D4E90121904781
:10247000206A401C20622078C00622D52046FEF744
:1024800059F91EE0002E04DBB34502DD01A8805D92
:1024900000E03020D4E901219047206A401C2062EE
:1024A000761CAAF101005FEA000A0AD1FFF7F4F8EE
:1024B000C0680168405CD4E901219047206A401C53
:1024C0002062281EA5F10105DCDC07E0D4E901212A
:1024D00018F8010B9047206A401C2062381EA7F1B3
:1024E0000107F3DC2046FEF73BF9032011B041E67B
:1024F0002DE9F04F04460D46D21D22F0070089B0A9
:10250000D0E900974846394618F05EFB0246F80FBE
:1025100001D02D2307E02068810701D52B2302E09D
:10252000202101EAC0038DF820300BB1012000E02A
:102530000020032A824601D0072A04DB29462046D0
:1025400000F044FD3FE12078800601D40D2500E035
:10255000E569C7F30A560D2D49DA00214FEA175BEA
:1025600008464FF00000002F00F4400007DA00EBAF
:1025700080004FF4400100EBD07001EA600081154B
:10258000012901DD4FF0FF3100224FEA850CBCF13B
:10259000180F06D31346ACF118004FF08052C2401A
:1025A00003E04FF4801323FA0CF30CF10C0CBCF194
:1025B000200F04D3ACF1200C09FA0CF001E007FA6B
:1025C0000CF000294FF0004801DD18B90FE00ED1E2
:1025D00040450CD319EB02095F4121B9404502D1B6
:1025E0009F4329EA0209BBEB175F00D0761C2088C5
:1025F000000502D57B48784402E07A4878441938CF
:1026000008AA302302F80A30037C0AF10101002EE7
:102610000AF1020A53546A4602DC4FF0300101E02D
:102620004FF031014FF001088DF8001002D0A6F2F2
:10263000FF3603E059EA470100D06B4E002D02DC63
:102640002178090704D54FF002082E218DF80110DA
:10265000C44600210BE0C7F303433F01C35C491CA0
:102660006D1E02F80830052908F1010801DA002D75
:10267000F1DC00210CE000EB1973491C1B786D1E86
:10268000082902F808304FEA091908F1010801DAAF
:10269000002DF0DC21688B0602D516E0A8F10108B8
:1026A000E04505DD02EB080313F8013C302BF5D0C3
:1026B000B8F1000F09DD02EB080313F8013C2E2BE3
:1026C00003D1090701D4A8F10108002D05DD3E2141
:1026D00002F808106D1E08F10108407C002E02F877
:1026E000080008F1010804DA2D20764202F80800FB
:1026F00002E02B2002F808000A214FF47A7086428B
:1027000008F101080BDB96FBF0F3303302F80830D8
:1027100096FBF0F308F1010800FB136601E0642E5C
:102720000CDB642096FBF0F3303302F8083096FBA4
:10273000F0F308F1010800FB136601E00A2E06DB46
:1027400096FBF1F0303002F8080008F1010896FB22
:10275000F1F001FB1060303002F80800A16908F1C7
:10276000010808EB050202EB0A00081AA0612078B4
:10277000C00602D42046FDF7DDFF216A08AE01EB5A
:102780000A00206204E0D4E9012116F8010B904709
:10279000BAF1010AF7D22078C00602D52046FDF72B
:1027A000C9FF6E4609E016F8010B3E280FD0D4E9A8
:1027B00001219047206A401C2062B8F10108F2D242
:1027C0002046FDF7CDFF09B00320BDE8F08F206A59
:1027D0002844206203E0D4E90121302090476D1E97
:1027E000EBD3F8E7B178030002FCFFFF10B54369B3
:1027F00013B1AFF3008001E0FFF782F8012010BDB4
:10280000128800F1240182840022C2840122EDE7B3
:1028100011684FF0FF32E9E72DE9F34F4FF0000A5E
:102820000C4656468DB001200C9001F10C000B9027
:1028300062690B9801219047051E2DD0252D2CD0C3
:10284000216A8847C0B162690B9801219047216ACB
:1028500088470028F7D16269411E0B98904700E035
:10286000761CA1690D988847216A88470028F7D10E
:10287000E1690D988847DBE7A1690D988847A84270
:10288000074601D1761CD3E7E1690D9888477F1C84
:1028900002D1BAF1000F6FD06BE162690B9800278B
:1028A0003D46394690472A2804D162690B98012198
:1028B00090470125DFF8D08262690B98012190478B
:1028C000A0F130010A290AD24745E5DC07EB870170
:1028D00000EB4107303FDFD445F01005ECE7E90697
:1028E00001D46FF000476C280AD04C2814D0682817
:1028F00015D06A280DD074281CD07A281AD01DE073
:1029000062690B98012190476C2802D045F00405BC
:1029100014E045F002050DE045F020050AE062698B
:102920000B9801219047682802D045F0080505E082
:1029300045F4006562690B9801219047C4E901578D
:1029400065283DD019DC58287AD00CDC452837D0D2
:1029500004DC252826D041289ED131E046282FD0FE
:10296000472899D12CE05B2877D0612828D06328AC
:102970007CD0642823D15AE0F6E06F2848D008DCE8
:1029800066281DD067281BD0692821D06E2816D153
:1029900027E0702845D0732868D0752847D078285C
:1029A0000DD14DE0A1690D988847252805463FF4D3
:1029B00069AFE1690D9888476D1C3FF46AAFD8E0B4
:1029C0000D9923466A466FF00100AFF30080C5E021
:1029D00045F0400023464FF000026060A80736D45F
:1029E0003EE0E8077FF447AF2068011D21600068E2
:1029F000290501D506701BE7290701D5068017E7D1
:102A0000A90703D5F117C0E9006111E706600FE7D8
:102A100045F0400023464FF008026060A80716D436
:102A20001EE040F60E0125EA0100606016E045F068
:102A3000400023464FF00A026060A80707D40FE069
:102A400045F040006060A80708D5234610220D9984
:102A50006FF00100AFF3008080E007E01022234612
:102A60000D996FF00100FEF71DF877E04FF00009B7
:102A700063284F46C8464B46CB4602D05B2806D05B
:102A800038E0E80601D40120A060012732E0626945
:102A9000D4F80CB00B98012190475E2807D14FF075
:102AA000010949466269D4F80CB00B989047216936
:102AB00039B900210A4603AB43F82120491C0829F3
:102AC000FADBD8B3216949B308F1010862690B98B0
:102AD000012190475D28F4D1B9F1000F09D0002001
:102AE00003A951F82020D24341F82020401C082897
:102AF000F7DB03AB2069002820794FEA40701ED035
:102B00005B462246CDF80080CDE901970D9900285B
:102B10006FF0010020DAAFF300801FE0C11703AAB5
:102B200000EBD1614B1121F01F0102EB8302411A2E
:102B300013680120884003431360C7E719E00D992B
:102B4000224600286FF00100009702DAAFF3008000
:102B500004E0FEF74DF801E0AFF3008000280ADA48
:102B6000401C06D10C9820B14FF0FF300FB0BDE8EB
:102B7000F08F5046FAE7E90701D10AF1010A06444D
:102B800000200C9054E60000CCCCCC0C2DE9F05F7A
:102B9000824615468B4600270AF10104B9460078A3
:102BA000302801D09DB113E014F8010B01277828DB
:102BB00003D0582801D045B10AE00DB1102D07D13E
:102BC000002714F8010B102502E0082500E00A2573
:102BD0000026B0460EE005FB080005FB06F10127C4
:102BE0001FFA80F801EB1046B6F5803F00D3B946D6
:102BF00014F8010B2946FEF757FF0028EBDABBF16A
:102C0000000F05D00FB1641E00E05446CBF8004021
:102C1000B9F1000F06D0FDF72DFC02210160C81E9E
:102C2000BDE8F09F48EA0640FAE7007B00F080002C
:102C300070472DE9F04705460C46C86820F420107F
:102C400040F48000C860800602D50846FFF77BF894
:102C5000E06841F282014FF0FF390140022903D0C0
:102C60002046FFF719F8B5E000F42041B1F5004F18
:102C70000FD1C00306D56168E06A884200D80846D3
:102C8000606006E02069E06260606069FEF7F6FC63
:102C9000A061A0680022EEB200280DDAE1688B0581
:102CA0000AD4C043A06041F490302260E0606068C4
:102CB000411C61600670A5E0E0689046226040F427
:102CC0000050E060206968BB6069FEF7C9FC01271D
:102CD00004F12405A0B1A08910F4407F08D0E06978
:102CE000FDF7E0FB206118B1E06840F4006016E0F9
:102CF000E7612561E06820F4407040F480600EE0F8
:102D0000E069FDF7CFFB00282061F1D0E06840F4D6
:102D1000006010F4407FE06002D140F48070E06019
:102D200020696060E06825696FF0010AC1051FD560
:102D30006168E06A884200D80846411B04D02246F8
:102D40002846FEF7B3FFF0BBE068010203D5E56259
:102D5000C4E9015854E0691CE1626160E16940F432
:102D60008030491EC4E9021030462E70BDE8F0875D
:102D7000010202D500F480320AE06068411C616003
:102D80000670E0680A2E40F48030E06006D0002231
:102D9000E16A6068814203D90B4602E00122F7E74D
:102DA0000346A7895B1B7F0503D4E7699F4200DDCB
:102DB000E2B1814200D80146E5620F1AC4E9015828
:102DC000002B09DD00E005E0224619462846FEF703
:102DD0006DFF08B14846C9E747B1A069E562656083
:102DE000C01BA061E06840F01000E060E0680002F5
:102DF00008D56168A069E562491B08446560A06167
:102E00005046B3E73046B1E710B50146C2689007B7
:102E100003D0900607D5886A0AE0FDF72BFB012155
:102E20000160881E10BD8B69486818440B69C01A80
:102E300091F848301BB191F84910401A10BD1103A8
:102E4000FCD50028FADD401E10BD70B5C468A5078A
:102E500013D0650211D4B2F5807F09D0B2F5007F9E
:102E600006D0B2F5806F08D1012300F1240106E0FD
:102E70005D1E6FF07F46B54201D3012070BD016138
:102E8000C361416024F470611143C160002070BDD2
:102E900070B516460C460546FDF7E4FA036893F84C
:102EA0000101012806D0FF2C0FD8185D68B1012060
:102EB0002C7070BDD3F807013246214603F2071388
:102EC00003442846BDE8704018474FF0FF3070BDFE
:102ED00010B500F03BF9BDE8104000F032B910B574
:102EE00000F04EF9BDE8104000F02BB9F0B50D46EA
:102EF000044685B0FEF7D0FB006994E8C010636912
:102F0000016803F26C730A188168CDE90363CDE9A7
:102F100001C7E36801440093C66A2369406A03FB62
:102F20000613A16901FB0022284603A100F038F82E
:102F300005B02846F0BD00002573202573253364B5
:102F400020252E32643A252E32643A252E32642012
:102F500025640A007546FEF797FBAE4605006946F4
:102F6000534620F00700854618B020B5FDF768FAF3
:102F7000BDE820404FF000064FF000074FF000087A
:102F80004FF0000B21F00701AC46ACE8C009ACE8FB
:102F9000C009ACE8C009ACE8C0098D467047000024
:102FA0000FB41CB5084B06AA7B44694600900598EF
:102FB000FEF75DFC044600206946FEF76BFC2046E8
:102FC0001CBC5DF814FB0000E9E8FFFF2DE9F041AF
:102FD0001F46044603260168072A01F4006004DB4B
:102FE00008B116A505E016A503E008B115A500E097
:102FF00015A521F010002060A069C01EA0610FB1CE
:10300000401EA0612046FDF795FB4FB1D4E9012198
:1030100038469047206A401C2062C01C206206E0AF
:10302000206AFAE7D4E9012115F8010B9047761ED2
:10303000F8D22046FDF794FBBDE8F0814E414E00EA
:103040006E616E00494E4600696E66002DE9F047DC
:10305000814616468AB0354878440DC88DE80D0083
:1030600032487844801C03AC0DC884E80D0041F65A
:103070009B300844372190FBF1F290FBF1F5A5F16C
:10308000800501FB12041B3C02D56442012000E0D4
:103090000020DFF898A080460027FA44AAF1BE0A73
:1030A0000EE0E0070AD03246684607EB47010123ED
:1030B0000AEB810100F043FB8DE8070064107F1CE0
:1030C000002CEED1194F7F44AE3F19E0E80715D030
:1030D00007EB04100DF1180A90E80E008AE80E00C4
:1030E000C068F04201D1981908903246012306A920
:1030F00003A800F024FB03AB83E807006D10641CF9
:10310000002DE3D14FF0010332466946B8F1000FBC
:1031100003A802D000F0FEFA01E000F010FBC9E9BC
:103120000001C9F808200AB0BDE8F087E06E03008E
:1031300010B50446AFF300802046BDE81040FDF70F
:10314000F1B8002801D000F043B8704710B501462F
:1031500002A000F043F8012010BD0000534947527F
:10316000545245443A2052656469726563743A204A
:1031700063616E2774206F70656E3A200000000056
:1031800010B5012805D0002103A000F027F8012088
:1031900010BD09A1F8E7000053494752544D454D71
:1031A0003A204F7574206F662068656170206D65E8
:1031B0006D6F7279000000003A2048656170206DE3
:1031C000656D6F727920636F7272757074656400DB
:1031D00001491820ABBEFEE72600020070B5054687
:1031E0000C460A2000E06D1C00F011F835B128787B
:1031F0000028F8D102E0641C00F009F814B120782E
:103200000028F8D1BDE870400A20AFF3008008B56F
:1032100069468DF800000320ABBE08BD5FEA400C94
:1032200008BF91F0000F4FEA8C234FEAC12243EA16
:1032300051514FEA1C5018BF00F5F0404FEA3000E2
:1032400018BF41F000415FEA6C5C00F02980BCF1DE
:10325000FF3F08BF40F080407047130C06BF1204C8
:103260004FF0100C4FF0000C130E04BF12020CF1C3
:10327000080C130F04BF12010CF1040C930F04BFD0
:1032800092000CF1020CD30F04BF52000CF1010CA0
:1032900011464FF00002A0F11F00A0EB0C00704798
:1032A00011F0004F08BF704731F000413FF4D5AF37
:1032B0000B0C06BF09044FF0100C4FF0000C0B0E66
:1032C00004BF09020CF1080C0B0F04BF09010CF13B
:1032D000040C8B0F04BF89000CF1020CCB0F04BF50
:1032E00049000CF1010CCCF12003A0EB0C0022FAF8
:1032F00003F302FA0CF241EA030100F10100704706
:1033000020F07F4C80EA030023F07F47ACEB0703FB
:1033100003F57C5300F0004003F1FF032DE98049E1
:103320004FEA154B09B44FEA144325EA0B4E24EA41
:1033300003480FF2042606EB132749083E785FEA9C
:10334000320203FB0667C7F5000707FB06F64FEAE4
:1033500054374FEAD64606F1020607FB066CCCF15D
:10336000005C4FEA1C472CEA074C07FB06F40CFBF9
:1033700006F504EB15464FEA961634BF00204FF0D1
:1033800000404FEAD13706FB07FC4FEA1C4C0CFB10
:103390000BF7D21B03FB0CF761EB07010CFB0EF7DD
:1033A000B0EB074072EB17420CFB08F734BFA2EBFF
:1033B0000742B2EB074261EB17414FEA0C444FEA78
:1033C000910706FB07FC4FEA1C4C0CFB0BF7B0EB1C
:1033D000C74072EB573203FB0CF734BFA2EBC74276
:1033E000B2EBC74261EB57310CFB0EF7B0EBC700F5
:1033F00072EB57720CFB08F734BFA2EBC702B2EBBB
:10340000C70261EB5771039F4FEA816141EA921154
:1034100004EBCC044FEAD1374FEA826206FB07FC8B
:1034200042EA90124FEA80604FEA1C4C0CFB0BF70B
:10343000D21B03FB0CF761EB07010CFB0EF7B0EBA3
:10344000074072EB17420CFB08F734BFA2EB0742B0
:10345000B2EB074261EB17414FEA8C554FEA9107F7
:1034600004EB9C2406FB07FC4FEA1C4C0CFB0BF7FF
:10347000B0EBC74072EB573203FB0CF734BFA2EB43
:10348000C742B2EBC74261EB57310CFB0EF7B0EB12
:10349000C70072EB57720CFB08F734BFA2EBC702F0
:1034A000B2EBC70261EB577115EB4C254FEA816116
:1034B00041EA92114FEA82624FEAD13742EA901212
:1034C00006FB07FC44F100044FEA80604FEA1C4C05
:1034D0000CFB0BF7D21B03FB0CF761EB07010CFB9A
:1034E0000EF7B0EB074072EB17420CFB08F734BF46
:1034F000A2EB0742B2EB074261EB174115EB1C153B
:103500004FEA813141EA92414FEA823242EA9042E7
:103510004FEA80304FEA0C7644F1000448EA034356
:103520004EEA0B484FF0000EB2EB080C71EB0307AC
:1035300024BF624639464EEB0E0E4FF0000B0018CA
:10354000524149414BEB0B0BB2EB080C71EB0307FB
:103550007BF1000B24BF624639464EEB0E0E4FF056
:10356000000B0018524149414BEB0B0BB2EB080C1E
:1035700071EB03077BF1000B24BF624639464EEB2B
:103580000E0E51EA020718BF46F0010616EB0E7642
:1035900055F1000254F1000103D5BDE88901BDE8F1
:1035A0000088BDE88901BDE80048B619524141EBE9
:1035B0000101A3F10103704780807F7E7D7C7B7ACF
:1035C0007978777676757473727171706F6E6E6DCF
:1035D0006C6C6B6A6A696868676666656464636375
:1035E00062616160605F5F5E5E5D5D5C5C5B5B5AFB
:1035F0005A59595858575756565555555454535368
:1036000052525251515050504F4F4F4E4E4D4D4DC2
:103610004C4C4C4B4B4B4A4A4A494949484848470D
:10362000474747464646454545444444444343434B
:103630004342424242414141002B9C4630D47700F4
:103640002BD01CB54FEA370703B44FF010004FF0F2
:103650001001BAF1000F06D0BCF1000FDCBF40F042
:10366000080040F008014FF000000FBCBDE810401A
:103670000BF1010BBBF1010F08BF5FEA170722BF77
:1036800012F1010211F101014FF0004143F1000379
:1036900000F0004043EA00007047F9D35708D0E734
:1036A00046EA064613F1400F4FEA16461FDD13F1B6
:1036B000200FDFBF16430A46002120335B42BED0F5
:1036C000C3F1200746EA064602FA07F74FEA164614
:1036D00046EA0706C3F1200722FA03F201FA07F7C8
:1036E00021FA03F14FF0000342EA0702A7E746EA96
:1036F000020646EA06464FEA164646EA0106BCBFFF
:1037000046EA0646360C4FF000034FF000024FF039
:10371000000194E72DE9804C9A46934670B491E8F5
:10372000380007C831EA400C48BF34EA430C03D5DF
:10373000FFF7E6FDFFF780FFF0BCBDE8008C2DE948
:10374000804C9A46934670B491E8380007C810F050
:10375000804F08BF13F0804F03D100F005F8FFF74A
:103760006BFFF0BCBDE8008C20F07F4780EA0300CF
:1037700023F07F4C07EB0C03A3F57C5300F00040D3
:10378000A3F1FE0392F0000F00F0B38095F0000F5C
:1037900000F077802DE901494FEA11404FEA1446C5
:1037A00021EA004800FB06FC24EA064708FB06F66F
:1037B00007FB08F800FB07F718EB06484CEB164C24
:1037C0004FEA124B18EB07484FEA15464CEB1740EF
:1037D00022EA0B4E0BFB06FC25EA06470EFB06F61B
:1037E00007FB0EFE0BFB07F71EEB064E4CEB164CD1
:1037F0004FF000061EEB074E4CEB174B18EB0B0877
:1038000040F1000018EB0E0B58EB000840F10000EF
:103810008F1A4FF000013CBFC943661B14BFB5EBC4
:10382000040C00213CBFC943F61B4FEA17444EEA83
:103830008E0E27EA04454FEA1C4704FB07622CEA78
:10384000074C05FB07F70CFB05F604FB0CFC16EB1D
:10385000074642EB174216EB0C4642EB1C421BEBB1
:10386000060658EB0202414146EA9E0601D5BDE834
:103870000189B619524141EB0101A3F10103BDE8F1
:1038800001894FEA14454FEA114724EA054621EA27
:10389000074C05FB07F406FB07F70CFB06F105FBDD
:1038A0000CFC11EB074144EB17444FEA124711EBB4
:1038B0000C4144EB1C4422EA074C05FB07F206FBD3
:1038C00007F70CFB06F605FB0CFC16EB074642EB74
:1038D000174216EB0C4642EB1C456A1854F10001E6
:1038E00048BF7047B619524141EB0101A3F10103F2
:1038F000704795F0000F37D04FEA11424FEA144756
:1039000021EA024624EA074C02FB07F106FB07F70F
:103910000CFB06F402FB0CFC14EB074441EB1741D3
:103920004FEA154714EB0C4441EB1C4125EA074CC8
:1039300002FB07F506FB07F70CFB06F602FB0CFC87
:1039400016EB074645EB174516EB0C4645EB1C42BC
:10395000121951F1000148BF7047B619524141EBAD
:103960000101A3F1010370474FEA14454FEA1147E3
:1039700024EA054621EA074C05FB07F106FB07F799
:103980000CFB06F24FF0000605FB0CFC12EB0742A5
:1039900041EB174112EB0C4251EB1C4148BF704701
:1039A000921841EB0101A3F10103704770B5054680
:1039B000AC6B206C00F0500050BB206C40F40070E9
:1039C00020642068806800F04050E8B9207ED8B9B3
:1039D0002068C06A00F4700020B12068806800F49C
:1039E000806088B92068406820F020002168486025
:1039F000206C20F480702064206C00F4805018B992
:103A0000206C40F001002064204607F041FB0BE0F1
:103A1000206C00F0100018B1204607F044FB03E0D2
:103A2000A06BC16C2846884770BD70B50546AC6B6D
:103A300040202064606C40F004006064204607F081
:103A400032FB70BD70B50446A56B284607F02AFB13
:103A500070BD000010B5024807F026FB10BD000045
:103A60009005002055494A6822F440324A604A686D
:103A700043681A434A600268526822F480720368FD
:103A80005A6002685368026943EA022203685A6076
:103A90000268526822F0407203685A6002685268F5
:103AA00083681A4303685A600268926822F40062CD
:103AB00003689A6002689268C3681A4303689A6050
:103AC0003F4B826A9A4218D00268926822F0706274
:103AD00003689A6002689268836A1A4303689A606E
:103AE0000268926822F0405203689A600268926805
:103AF000C36A1A4303689A600BE00268926822F076
:103B0000706203689A600268926822F0405203680B
:103B10009A600268926822F0020203689A60026862
:103B20009368027E43EA420203689A602022125C94
:103B3000A2B10268526842F4006203685A600268E7
:103B4000526822F4604203685A6002685368426A0D
:103B5000521E43EA423203685A6005E00268526826
:103B600022F4006203685A600268D26A22F470028A
:103B70000368DA620268D36A828B521E43EA0252F9
:103B80000368DA620268926822F4007203689A603D
:103B90000268936890F8302043EA422203689A60F2
:103BA0000268926822F4806203689A6002689368EF
:103BB000426943EA822203689A6070470023014009
:103BC0000100000F10B550220249034807F0F4FB32
:103BD00010BD000094F300209005002070B504464D
:103BE00006F0BAFB0546204615F06CFC20460FF0A7
:103BF000E1F901F0D1FA70BD7FB582B00A9C06F000
:103C000067FB05460026012D04D0022D09D0042DA6
:103C100015D10DE0009402A80FC80FF0A3FA0646D4
:103C20000EE0009402A80FC810F0D4FA064607E090
:103C3000009402A80FC810F0C1F8C6B200E000BF9F
:103C400000BF304606B070BD2DE9F0410446204665
:103C500000F0D6FD204600F069FD204600F020FC73
:103C6000204600F0C9FB204600F02CFE204600F064
:103C7000E5FE204600F082FC214800EBC400D0E9BC
:103C80000010204A02EBC4030CCB514058400143C2
:103C900018D01C4800EBC400D0E90073184800EBB2
:103CA000C4003A46D0E90051284627F0F1FC1548F7
:103CB00000EBC400D0E90010114A02EBC402C2E9D3
:103CC00000101BE0104901EB840042F2107116F065
:103CD0000DF898B10B4800EBC400D0E90073084818
:103CE00000EBC4003A46D0E90051284627F0D0FC4A
:103CF000054901EB8400002115F0F8FFBDE8F081D3
:103D000008F1002078EF0020A0040020FFB583B068
:103D1000DDE90C5406F0DCFA06460327012E04D038
:103D2000022E09D0042E17D10EE0009403A80FC86C
:103D30000FF0A2FC074611E0CDE9005403A80FC81C
:103D400010F050FD074609E0CDE9005403A80FC864
:103D500010F0CAF8C7B201E0032700BF00BF384621
:103D600007B0F0BDF8B504460026002505F006FEB4
:103D70000FE0B4F9021004F1280304F11802201D29
:103D80001CF03CFF20B96D1C032D02DD0020F8BDA6
:103D900000E0EEE700BF642025F0B4FD12480021EA
:103DA0000268022005F0B4FF207802280BD14920D8
:103DB000032300900C4804F13801026800201CF035
:103DC0006BFF06460AE0492003230090064804F1F1
:103DD0003801026800201DF049F8064602480068D4
:103DE00005F004FD3046D2E7F404002010B5044687
:103DF0005B4901EB84004FF4FA7115F077FF01285D
:103E00000CD1574901EB8400002115F06FFF554894
:103E1000007880F001005349087000E010BD204692
:103E200006F0B4FA00235840594008433DD02046DC
:103E300006F0C0F860B1002108460FF043F80121F8
:103E400008460FF03FF8012102200FF03BF813E085
:103E50004448007820B1002108460FF033F803E011
:103E6000012100200FF02EF8012108460FF02AF85A
:103E7000012102200FF026F8204606F037FA02282A
:103E80000AD0394800780A2806D021460A2003F0D3
:103E90005DFE0A20344908703448007801285CD15E
:103EA000012104200FF00EF857E0204606F01EFA1C
:103EB00038BB012100200FF005F8204606F092F9EA
:103EC000022808D0002102200EF0FCFF0121084644
:103ED0000EF0F8FF07E0002101200EF0F3FF0121B2
:103EE00002200EF0EFFF21480078012804D10021C4
:103EF00004200EF0E7FF30E0012104200EF0E2FF85
:103F00002BE0204606F0F2F9012804D0204606F006
:103F1000EDF9022821D11348007820B9204606F097
:103F2000E5F9022804D1002102200EF0CBFF03E0C6
:103F3000012102200EF0C6FF012100200EF0C2FF79
:103F40000A480078012804D1002104200EF0BAFFAD
:103F500003E0012104200EF0B5FF00BF5EE7000082
:103F6000DC040020E4040020E5040020840200209A
:103F70007047000010B500244FF41663022201219F
:103F8000104616F015F800BF26E00020144901EB9A
:103F90000411086040F69800114901EB0411888073
:103FA0000F4901EB0411C8800D4901EB0411088190
:103FB00000200B4901EB04114881094901EB041170
:103FC0004881074901EB0411C8810120C4EBC401F9
:103FD000044A11448871641C022CD6DB10BD000019
:103FE00018F1002038F1002010B511F0EDFC0A2086
:103FF00025F088FC10BD00B58FB0242106A8FDF780
:1040000096F90D208DF81900162209A96846FDF7CA
:1040100032F9042006A90EC911F0B2FF0FB000BD9D
:1040200070B5044606F054F905460026012D04D06B
:10403000022D07D0042D0FD109E020460FF0FEFC21
:1040400006460AE0204610F0C1FD064605E020467F
:104050000FF0FCFFC6B200BF00BF00BF304670BD0E
:104060002DE9F04104460D4606F032F906460327D5
:10407000012E04D0022E08D0042E12D10BE02946C6
:1040800020460FF031FD07460DE02946204610F08E
:10409000ADFD074607E0294620460FF0E7FFC7B20F
:1040A00001E0032700BF00BF3846BDE8F0810000F3
:1040B0002DE9FF4FA1B004461546984633F0F8FFAE
:1040C0008346802101A8FDF732F9802600274FF0B2
:1040D00000094FF0000A802101A8FDF728F9C82344
:1040E000324601A9042003F015FD07462046FCF7DF
:1040F000C5FF6423024621460090042003F018FD0A
:10410000C82025F0FFFB802101A8FDF710F9224609
:104110001BA1012018F0D6FA00BF01A800EB09018D
:104120004FF4FA733246042003F0F4FC0746BFB1A3
:1041300001AA15A1012018F0C5FAF61BB94401A87F
:104140002299FCF739FF8246BAF1000F0BD01DB15E
:1041500051462846FCF76EFF012025B0BDE8F08FE0
:10416000142025F0CFFB002E00DA05E033F0A0FF8D
:10417000A0EB0B004045D0D300BF0020EDE70000CE
:1041800073656E6420257300636D6420726376200E
:10419000257300002DE9FF4FA1B00546164698464D
:1041A00033F086FF209080216846FDF7C0F8802418
:1041B00000274FF000094FF0000A80216846FDF704
:1041C000B6F82246C8236946042003F0A3FC07463C
:1041D0002846FCF753FF1FFA80FB64235A46294602
:1041E000042003F0A5FCC82025F08CFB8021684644
:1041F000FDF79DF82A461BA1012018F063FA00BFC5
:10420000A2B20DEB09014FF4FA73042003F082FC13
:104210000746BFB16A4615A1012018F053FAE41B06
:10422000B94468462299FCF7C7FE8246BAF1000FEE
:104230000BD01EB151463046FCF7FCFE012025B0E4
:10424000BDE8F08F142025F05DFB002C00DA05E0BE
:1042500033F02EFF2099401A4045D1D300BF0020F3
:10426000EDE7000073656E6420257300636D6420C4
:1042700072637620257300002DE9FF4FA1B005463B
:104280001646984633F014FF209080216846FDF7CB
:104290004EF8802400274FF000094FF0000A8021DB
:1042A0006846FDF744F82246C8236946042003F017
:1042B00031FC07462846FCF7E1FE1FFA80FB642329
:1042C0005A462946042003F033FCC82025F01AFB87
:1042D00080216846FDF72BF82A461BA1012018F023
:1042E000F1F900BFA2B20DEB09014FF4FA730420FB
:1042F00003F010FC0746BFB16A4615A1012018F073
:10430000E1F9E41BB94468462299FCF755FE824660
:10431000BAF1000F0BD01EB151463046FCF78AFEB1
:10432000012025B0BDE8F08F142025F0EBFA002C19
:1043300000DA05E033F0BCFE2099401A4045D1D3A5
:1043400000BF0020EDE7000073656E642025730058
:10435000636D6420726376202573000070B594B09D
:1043600004460E46002011901290139014210CA8C0
:10437000FCF7DDFF202104A8FCF7D9FF0020019005
:104380000290039006F0CEF8054604A80CAB11AAE3
:104390000EA100902046FCF767FB11A8FCF798FCE3
:1043A00001900CA8FCF794FC0290DDE90101484360
:1043B0006421B0FBF1F0039001A812F029FC08A1E0
:1043C000012018F07FF9002014B070BD255B5E203D
:1043D0005D20255B5E205D20255B5E205D0000008A
:1043E00041646A7573745F4D657465725F50617284
:1043F000616D204F4B00000070B50446002520463B
:1044000005F074FF012800D008E0002005F08CFEC4
:10441000B0F5967F01DA012500E0002595B11E4830
:10442000005D01280ED11C48005D012832D100201A
:1044300019490855194941F824002146072002F07E
:104440006DFC27E00DBB1448005DF8B9134850F827
:10445000240028B908F0FEFC104941F8240019E0B6
:1044600008F0F8FC0D4951F82410401A43F6982141
:1044700088420FD30120084908550020074941F818
:1044800024002146072002F003FC03E0002003493A
:1044900041F8240070BD00003C04002034040020DA
:1044A0002DE9F04104460027002505F011FF0646DE
:1044B0000EB1032E01D1BDE8F08105F0B0FE074634
:1044C0000FB9012500E0002555B32A48005D0128F9
:1044D00021D1294850F8240028B908F0BBFC26490E
:1044E00041F8240043E008F0B5FC234951F82410BA
:1044F000401AB0F57A7F3AD31E48005D012836D1C4
:1045000000201C4908551C4941F82400214616206A
:1045100002F004FC2BE00020174941F8240026E0BB
:1045200005BB1448005DF0B9134850F8240028B9C1
:1045300008F090FC104941F8240018E008F08AFCCB
:104540000D4951F82410401AB0F57A7F0FD301209D
:10455000084908550020084941F824002146162042
:1045600002F096FB03E00020034941F8240000BF5D
:10457000A1E70000480400204004002030B52DEDE4
:10458000068B89B0044605F0E7FE05469FED5F0AFD
:10459000B0EE408A9FED5D0AF0EE408A214601A808
:1045A00005F0AAFF01A80FC8CDE90723CDE9050151
:1045B0001DB99FED570AB0EE408A012D03D19FED42
:1045C000550AB0EE408A022D03D19FED530AB0EE9A
:1045D000408A18EE100A34F007FE41EC1A0B9FEDEA
:1045E0004F0B53EC102B34F009FB41EC190B33F05B
:1045F000EFFF08EE100A06F0EDF901282AD1BDF907
:104600001E00BDF92010884208DDBDF91E0000EE35
:10461000100AB8EEC00AF0EE408A07E0BDF92000AB
:1046200000EE100AB8EEC00AF0EE408ABDF9220092
:1046300000EE100AB8EEC00AB4EEE80AF1EE10FA85
:1046400010DDBDF9220000EE100AB8EEC00AF0EE4F
:10465000408A07E0BDF91E0000EE100AB8EEC00A5D
:10466000F0EE408AF4EEC88AF1EE10FA22DB2D4813
:1046700050F8240030B9002030F0D8FF294941F823
:1046800024003EE0002030F0D1FF264951F82410EC
:10469000401A052835D32448005D012831D1002077
:1046A000214908551F4941F8240021460B2002F0FA
:1046B00035FB26E01C48005DF8B91A4850F8240084
:1046C00030B9002030F0B2FF164941F8240018E05C
:1046D000002030F0ABFF134951F82410401A1E2877
:1046E0000FD901201049085500200E4941F8240037
:1046F00021460B2002F0CCFA03E00020094941F8E2
:10470000240009B0BDEC068B30BD000000000000A5
:104710000000C8440000484500E0C445666666667F
:104720006666F23F780400208004002070B50446DD
:104730000026002505F0F6FE00B170BD204605F00C
:10474000F7FE06460EB9012500E0002555B32A48BC
:10475000005D012821D1294850F8240028B908F02B
:1047600079FB264941F8240043E008F073FB234914
:1047700051F82410401AB0F57A7F3AD31E48005DF4
:10478000012836D100201C4908551C4941F8240055
:104790002146152002F0C2FA2BE00020174941F80B
:1047A000240026E005BB1448005DF0B9134850F81A
:1047B000240028B908F04EFB104941F8240018E005
:1047C00008F048FB0D4951F82410401AB0F57A7FE3
:1047D0000FD30120084908550020084941F824005A
:1047E0002146152002F054FA03E00020034941F865
:1047F000240000BFA1E700003004002028040020AE
:1048000070B504460025002000F0ECFA064606B11B
:1048100000E001254DB32948005D012820D128483A
:1048200050F8240028B908F015FB254941F8240068
:1048300042E008F00FFB224951F82410401A3228B8
:104840003AD31E48005D012836D100201B49085587
:104850001B4941F824002146012002F05FFA2BE0B9
:104860000020174941F8240026E005BB1348005DED
:10487000F0B9134850F8240028B908F0EBFA1049B1
:1048800041F8240018E008F0E5FA0D4951F8241029
:10489000401AB0F5FA6F0FD30120084908550020DF
:1048A000074941F824002146012002F0F1F903E014
:1048B0000020034941F8240070BD000018040020C6
:1048C0001004002010B588B00446204605F00EFD07
:1048D000012828D05748005DF8B9574850F82400FF
:1048E00030B9002030F0A2FE534941F8240018E00E
:1048F000002030F09BFE504951F82410401A1E2829
:104900000FD901204B49085500204B4941F824009C
:104910002146092002F0BCF903E00020464941F895
:10492000240008B010BD2146684605F0E5FD9DE86D
:104930000F00CDE90623CDE9040105F015FEBDF910
:10494000141088420BDB05F00FFEBDF916108842EB
:1049500005DB05F009FEBDF9181088422BDA354851
:10496000005D012822D1344850F8240030B90020DD
:1049700030F05CFE304941F8240058E0002030F06F
:1049800055FE2D4951F82410401A3C284FD929488A
:10499000005D01284BD1002026490855264941F8E1
:1049A00024002146092002F0B9F940E00020224904
:1049B00041F824003BE005F0D7FD5038BDF9141054
:1049C000884230DB05F0D0FD5038BDF91610884222
:1049D00029DB05F0C9FD5038BDF91810884222DBEB
:1049E0001448005D18BB144850F8240030B900206A
:1049F00030F01CFE104941F8240018E0002030F08F
:104A000015FE0D4951F82410401A0F280FD9012026
:104A1000084908550020084941F82400214609208A
:104A200002F036F903E00020034941F8240000BFFA
:104A300077E70000560400205804002030B589B004
:104A40000446204605F074FD0546204605F04EFC60
:104A500001282BD09E48005D10BB9E4850F82400D2
:104A600030B9002030F0E2FD9A4941F824001BE003
:104A7000002030F0DBFD974951F82410401A1E2821
:104A800012D99348005D78B90020924941F824007A
:104A900001208F49085521460A2002F0F9F803E069
:104AA00000208C4941F8240009B030BD3DB905F023
:104AB00039FD20B90020874941F82400F4E7214658
:104AC00001A805F019FD01A80FC8CDE90723CDE91C
:104AD000050105F07FFF012878D105F05BFF143850
:104AE000BDF91810884239DD05F054FF1438BDF9BE
:104AF0001A10884232DD05F04DFF1438BDF91C1044
:104B000088422BDD7248005D012822D1714850F89F
:104B1000240030B9002030F089FD6E4941F82400AE
:104B2000D3E0002030F082FD6A4951F82410401A89
:104B30003C28F5D96648005D0128F1D10020644980
:104B40000855644941F8240021460A2002F0E6F89D
:104B5000BBE000205F4941F82400B6E005F01AFFF1
:104B60005030BDF9181088420DDD05F013FF5030AC
:104B7000BDF91A10884206DD05F00CFF5030BDF972
:104B80001C10884228DC5248005D00BB514850F898
:104B9000240030B9002030F049FD4E4941F824008E
:104BA00093E0002030F042FD4A4951F82410401AA9
:104BB0000F280AD90120464908550020454941F8E7
:104BC000240021460A2002F063F87EE009E000207C
:104BD000404941F8240078E000203E4941F8240093
:104BE00073E005F0D7FE1438BDF91810884236DDA1
:104BF000BDF91800B0F52F7F31DB3548005D012885
:104C000028D1344850F8240060B9BDF9182032A1E9
:104C1000012017F057FD002030F008FD2D4941F824
:104C2000240052E0002030F001FD2A4951F8241000
:104C3000401A3C2849D92648005D012845D100206A
:104C400023490855234941F8240021460A2002F04F
:104C500065F83AE000201F4941F8240035E005F0EE
:104C600099FE5030BDF9181088422ADC1848005DC2
:104C700010BB184850F8240030B9002030F0D6FCA2
:104C8000144941F8240020E0002030F0CFFC114905
:104C900051F82410401A0F2817D90D48005DA0B90B
:104CA00000200C4941F824000120094908552146FB
:104CB0000A2001F0EDFF08E00020064941F8240039
:104CC00003E00020034941F8240000BFECE60000A7
:104CD0006004002064040020766F6C74203D25641D
:104CE00000000000002003490870084600780870A2
:104CF00070470000600500200120014908707047DE
:104D00006005002010B531F00FFF10BD70B50446EE
:104D10000D46012D08D10A4A32F81410094A52F8FA
:104D20002400012208F090F845B9054A32F8141021
:104D3000044A52F82400002208F086F870BD0000F2
:104D40009A9D03085005002010B50146002200245A
:104D5000002300BF1CE0062910D1124800EB02100E
:104D600030F81100B0F5AF6F10DD0E4800EB021007
:104D700030F811000344601C04B207E0094800EB5E
:104D8000021030F811000344601C04B2501C02B23F
:104D90000A2AE0DB052C02DDB3FBF4F300E000237C
:104DA00098B210BD94F300200C4A12680C4B9A4242
:104DB00013D149B948F6A04242436423B2FBF3F24F
:104DC000064B1B689A6308E048F6A04242436423FE
:104DD000B2FBF3F2014B1B689A637047ACFE0020F4
:104DE0000000014070B50446074A32F81410074A23
:104DF00052F8240008F016F806460EB9002500E027
:104E00000125284670BD0000909D03084005002044
:104E1000FEB506460C46154603208DF8000001211C
:104E2000684604F05BF8E0B28DF80000200A8DF8C7
:104E30000100200C8DF802000321684604F04EF8B2
:104E4000E8B28DF80000280A8DF8010002216846BA
:104E500004F044F8032005490860284604F00AF8E5
:104E60000646012006F0ECFFFEBD00008005002094
:104E7000FEB506460C46154606208DF800000220B9
:104E80008DF801000221684604F028F8E0B28DF8A0
:104E90000000200A8DF80100200C8DF8020003218B
:104EA000684604F01BF82946304604F017F8022043
:104EB00002490860012006F0C3FFFEBD8005002006
:104EC000012070473EB504460121062004F006F893
:104ED0000121202004F002F8E0B28DF80000200A41
:104EE0008DF80100200C8DF802000321684603F0C4
:104EF000F5FF042002490860012006F0A1FF3EBD35
:104F00008005002000B50246104600F001F800BD03
:104F100001460020704710B50446A521204600F048
:104F200001F810BD33B599B0044600250020189053
:104F3000582102A8FCF7FBF90CBB36223C4902A819
:104F4000FCF799F93A48C08EADF83E003848816BBD
:104F50001091808FADF844003548C08FADF8460001
:104F600011223349403112A8FCF785F9304890F8F6
:104F700051008DF859002E48406D179046E0012CE5
:104F800021D136222B4902A8FCF775F92948C08E99
:104F9000ADF83E002748816B1091808FADF844003A
:104FA0002448C08FADF8460011222249403112A892
:104FB000FCF761F91F4890F851008DF859001D4821
:104FC000406D179022E0022C20D136221A4902A807
:104FD000FCF751F91848C08EADF83E001648816BB9
:104FE0001091808FADF844001348C08FADF8460093
:104FF00011221149403112A8FCF73DF90E4890F8F2
:1050000051008DF859000C48406D17900B4800680E
:10501000012318AA1AA9009002A808F075FF0546F6
:1050200015B12046FFF76EFF9DF860001BB030BD44
:1050300074FF0020CCFF0020E40600207C05002047
:1050400010B531F075FD10BD10B5024807F037FFFF
:1050500010BD000060060020014600204A781209B9
:1050600002EB4203C3EBC21200EBC2004A7802F02B
:105070000F0202EBC20303EB021200EB82000A787C
:10508000120902EB820200EB42000A7802F00F02E2
:10509000024410B27047014600200022121140F66F
:1050A000354312FB03F200EB42108A7802F00F0244
:1050B00040F2712312FB03F200EB02104A7812094E
:1050C00002EB4203C3EBC21200EBC2004A7802F0CB
:1050D0000F0202EBC20303EB021200EB82000A781C
:1050E000120902EB820200EB42000A7802F00F0282
:1050F00010448A7802F0800202B1404270470000FA
:1051000001460020CA78C2F302121D4B5A4300EB3D
:10511000C210CA7802F00F0243F6095312FB03F2E1
:1051200000EB82108A78120940F6354312FB03F235
:1051300000EB42108A7802F00F0240F2712312FB5A
:1051400003F200EB02104A78120902EB4203C3EBB0
:10515000C21200EBC2004A7802F00F0202EBC20357
:1051600003EB021200EB82000A78120902EB8202C2
:1051700000EB42000A7802F00F0210447047000072
:105180002D310100014601F00F000A0902EB8202F5
:1051900000EB4200C0B2704710B52B4800780128E0
:1051A0000BD029484078012807D0002004F002FFE6
:1051B00018B9012004F0FEFEC0B14FF4FA71234883
:1051C00014F094FD48B12248007880F00100204995
:1051D000087000211D4814F089FD1D48007810B1A9
:1051E000FFF78AFD2FE0FFF77DFD2CE016480078E1
:1051F00010B11548407808BB1648006830B9002146
:10520000144814F073FDFFF777FD1CE04FF4FA71BA
:10521000104814F06BFDB0B10B48007810B90220B3
:10522000094908700848407810B9022006494870BA
:10523000FFF758FD00200749086004E0FFF752FD22
:1052400000200449086010BDA8040020D4040020F8
:10525000D8040020D004002000BFFEE701466329E7
:1052600001DBAA2070470A2091FBF0F200FB12102C
:105270000A2291FBF2F200EB0210C0B2F2E700004A
:1052800010B5024806F073F910BD00003806002082
:1052900010B5024806F06BF910BD0000380600207A
:1052A00010B5024806F063F910BD00003806002072
:1052B00010B5024806F05BF910BD0000380600206A
:1052C00010B5044602A1012017F0FCF910BD000042
:1052D00073746172742063616E207465737400006E
:1052E0002DE9F0478146002500213520FFF75CFDC0
:1052F000002030F09BF980464FF47A7024F002FBD6
:10530000002004F0A9FE0446642094FBF0F100FBA9
:10531000114694FBF0F733463A460AA1012017F0F4
:10532000D1F9002004F05EFF012800D10125002101
:105330006420FFF739FD07A1012017F0C3F92846C3
:10534000BDE8F0874350203D2025642E25322E32C3
:105350006400000050574D20B2C9D1F9B2E2CAD45E
:10536000BDE1CAF80000000030B502464FF6FF70FC
:1053700012E032F8024B6040082308E000F001041C
:1053800014B14AF2010400E0002484EA60001C1E0B
:10539000A3F10105ABB2F1D10C1EA1F10105A9B237
:1053A000E7D130BD70B52DED088B04F0D5FF044674
:1053B0009FED220AB0EE408A00250CB9102508E0C6
:1053C000012C01D1202504E0022C01D13F2500E071
:1053D0001025332D11DC284633F0C0FB41EC1A0BAD
:1053E0009FED170B53EC102B33F0E0F941EC190B48
:1053F00033F0EEF808EE100A18E0284633F0AEFB62
:1054000041EC1B0B9FED100B53EC102B33F0CEF93E
:1054100041EC1A0B9FED0E0B53EC102B33F00AF9F5
:1054200041EC190B33F0D4F808EE100ABCEEC80AB0
:1054300010EE100AC0B2BDEC088B70BD0000000079
:10544000333333333333E33F0000000000000440C4
:1054500000000000000050402DE9FF4F2DED068BAD
:1054600085B0189C0020049000BF30F0DFF8039056
:1054700000BF0026002704F095FD824603A81CF01B
:10548000BEF90546B32060437B49084490F83700D5
:10549000F0B9B32060430844C069784941F824005A
:1054A0002879774908550121B3206043724A104496
:1054B00080F83710B3216143114401F138006021B5
:1054C000FBF713FF9FED6F0A6F4880ED000A1EE0A7
:1054D00068681E2801D06868C8B96948005D6968B5
:1054E000884214D0287966490855B3206043624940
:1054F000084490F83700401CC1B2B32060435E4AB4
:10550000104480F8371061A1002017F0DBF8B320B9
:105510006043594A10440B99C069A1EB00085748F1
:1055200050F824000B9988427ED0544951F8241039
:105530000B98401AB0F57A7F76D2504951F8241072
:105540000B98A0EB010B00BF287A0490049840064A
:10555000060E68681E2801DD701CC6B2304605F0D4
:1055600009F800FB0BF000EE100AB8EE400AB0EEAE
:10557000408A18EE100A33F037FE9FED480B53ECCB
:10558000102B33F013F933F023F808EE100A3E48DD
:1055900090ED000A30EE080A80ED000A374850F816
:1055A0002400CDE9000638480B9B90ED000ABCEEC4
:1055B000C00A10EE100A82B23AA1002017F082F859
:1055C000314890ED000ABCEEC00A10EE100A81B21C
:1055D000B3206043284A1044018628490B9841F8BB
:1055E0002400BAF8280100FB08F06421B0FBF1F1B7
:1055F000B32060431044C0F89810BAF8280100FBAB
:1056000008F06421B0FBF1F000EE100AB8EE400A99
:105610001D48D0ED000A30EE200ABCEEC00A10EEA4
:10562000100AB321614300E020E01144C1F89C005E
:105630004FF0000900270BE0B74208D0B3206043C9
:105640000D490844383000EB4700008881447F1C36
:10565000302FF1DBA8EB090081B2B3206043064A8A
:105660001044383000EB4600018000BF05B0BDECAF
:10567000068BBDE8FF8F000078DA0020FC010020D7
:10568000F80100200000000004020020CAB1BCE4C0
:10569000B5C8D3DAD5FBB5E3000000000000000078
:1056A000000059406D6F6E657920256420B5E7B123
:1056B000EDCAFD202564202D2025642C20B5DA2597
:1056C00064B8F6CAB1BCE4C7F8BCE4002DE9F04305
:1056D00093B0044624210AA8FBF729FE0020069077
:1056E000079008900990204604F0AEFC054621463C
:1056F00002A804F001FF02A80FC806AE0FC6B3202F
:105700006043FE490844D0F89C200321FC4808F07F
:1057100098F9B3206043F9490844826A0421F848A3
:1057200008F08FF9B3206043F4490844806A020C02
:105730000521F34808F085F9B3206043EF49084498
:1057400082690621EE4808F07CF9B3206043EB49FA
:105750000844D0F833200721E94808F072F9B32053
:105760006043E6490844D0F83300020C0821E448BD
:1057700008F067F92A460921E14808F062F92A0C85
:105780000A21DF4808F05DF9DE4800EB841042781A
:105790000B21DB4808F055F9B3206043D749084492
:1057A000028E0E21D64808F04CF9D64800EB841042
:1057B0004078012813D1D448005D80B9D14800EB6E
:1057C0008410807B002809D1204601F07BF900205D
:1057D000CE4941F82400CE4941F8240002E2CA48EB
:1057E000005D01287ED1C74800EB84104078012875
:1057F00078D0B3206043C1490844816AB320604334
:10580000BE4A1044C0690E1ABE4800EB841090F8DE
:105810003010B32060431044C175B320604310447E
:105820000699816200202FF001FFB3216143B34A42
:105830001144C1F83300B7A1012016F043FFB32093
:105840006043AE49084480693C21B0FBF1F201FBA2
:105850001207B3206043A949084480693C21B0FB8A
:10586000F1F0B0FBF1F201FB1208B3206043A34951
:10587000084480694FF46161B0FBF1F943464A4640
:10588000A7A10120009716F01DFFB32060439B499C
:105890000844D0F89C006421B0FBF1F201FB120730
:1058A000B320604395490844D0F89C006421B0FBC4
:1058B000F1F83B4642469FA1012016F003FF642009
:1058C000B6FBF0F100FB1167B6FBF0F83B46424631
:1058D0009DA1012016F0F6FEA1A1012016F0F2FE16
:1058E000B32100E007E06143844A1144081D102100
:1058F00026F04CF876E1834800EB841040780128CC
:105900007ED18148005D0128FAD1BDF91C007F4994
:1059100051F82410884204D9BDF91C007B4941F894
:105920002400BDF922007A4951F82410884204D994
:10593000BDF92200764941F82400B32060436F4A44
:10594000104406998162714830F8240081B2B32076
:105950006043104481856E4830F8240081B2B32042
:1059600060431044C18500202FF060FEB3216143E5
:10597000624A1144C1F83300B32060431146084421
:10598000D0F83310B320604310440068091AB320E4
:10599000604310448161009406A80FC8FFF75CFDC6
:1059A000724901EB840042F2107114F09FF9002853
:1059B000A0D0B320604351490844816AB3206043BA
:1059C0004E4A1044C0690E1AB32060431146084481
:1059D00080693C21B0FBF1F201FB1207B320604368
:1059E0004649084480693C21B0FBF1F0B0FBF1F27C
:1059F00001FB1208B320604340490844806900E07D
:105A00006AE04FF46161B0FBF1F943464A4644A1B4
:105A10000020009716F056FE6420B6FBF0F100FB64
:105A20001167B6FBF0F83B46424651A1002016F044
:105A300049FEBDF92200642190FBF1F201FB12073F
:105A400090FBF1F83B4642464FA1002016F03AFE8B
:105A5000BDF91C000A2190FBF1F201FB120790FB3B
:105A6000F1F83B4642464EA1002016F02BFEB32033
:105A7000604322490844D0F89C006421B0FBF1F255
:105A800001FB1207B32060431C490844D0F89C0076
:105A90006421B0FBF1F83B46424646A1002016F0D7
:105AA00011FE324901EB8400002114F01FF9214658
:105AB000082002F04BF808204449087005208DF8B2
:105AC000290016220DA96846FBF7D5FB02200AA97A
:105AD0000EC910F055FA85E00B48005D02280BD185
